{
  "contractName": "cryptoHistory",
  "abi": [
    {
      "inputs": [],
      "stateMutability": "nonpayable",
      "type": "constructor"
    },
    {
      "anonymous": false,
      "inputs": [
        {
          "indexed": true,
          "internalType": "address",
          "name": "owner",
          "type": "address"
        },
        {
          "indexed": true,
          "internalType": "address",
          "name": "approved",
          "type": "address"
        },
        {
          "indexed": true,
          "internalType": "uint256",
          "name": "tokenId",
          "type": "uint256"
        }
      ],
      "name": "Approval",
      "type": "event"
    },
    {
      "anonymous": false,
      "inputs": [
        {
          "indexed": true,
          "internalType": "address",
          "name": "owner",
          "type": "address"
        },
        {
          "indexed": true,
          "internalType": "address",
          "name": "operator",
          "type": "address"
        },
        {
          "indexed": false,
          "internalType": "bool",
          "name": "approved",
          "type": "bool"
        }
      ],
      "name": "ApprovalForAll",
      "type": "event"
    },
    {
      "anonymous": false,
      "inputs": [
        {
          "indexed": true,
          "internalType": "address",
          "name": "previousOwner",
          "type": "address"
        },
        {
          "indexed": true,
          "internalType": "address",
          "name": "newOwner",
          "type": "address"
        }
      ],
      "name": "OwnershipTransferred",
      "type": "event"
    },
    {
      "anonymous": false,
      "inputs": [
        {
          "indexed": true,
          "internalType": "address",
          "name": "from",
          "type": "address"
        },
        {
          "indexed": true,
          "internalType": "address",
          "name": "to",
          "type": "address"
        },
        {
          "indexed": true,
          "internalType": "uint256",
          "name": "tokenId",
          "type": "uint256"
        }
      ],
      "name": "Transfer",
      "type": "event"
    },
    {
      "anonymous": false,
      "inputs": [
        {
          "indexed": false,
          "internalType": "uint256",
          "name": "_collection",
          "type": "uint256"
        },
        {
          "indexed": false,
          "internalType": "uint256",
          "name": "_cardType",
          "type": "uint256"
        },
        {
          "indexed": false,
          "internalType": "address",
          "name": "owner",
          "type": "address"
        }
      ],
      "name": "cardCreated",
      "type": "event"
    },
    {
      "inputs": [],
      "name": "_name",
      "outputs": [
        {
          "internalType": "string",
          "name": "",
          "type": "string"
        }
      ],
      "stateMutability": "view",
      "type": "function"
    },
    {
      "inputs": [],
      "name": "_symbol",
      "outputs": [
        {
          "internalType": "string",
          "name": "",
          "type": "string"
        }
      ],
      "stateMutability": "view",
      "type": "function"
    },
    {
      "inputs": [
        {
          "internalType": "uint256",
          "name": "",
          "type": "uint256"
        }
      ],
      "name": "alreadyCharged",
      "outputs": [
        {
          "internalType": "bool",
          "name": "",
          "type": "bool"
        }
      ],
      "stateMutability": "view",
      "type": "function"
    },
    {
      "inputs": [
        {
          "internalType": "uint256",
          "name": "",
          "type": "uint256"
        }
      ],
      "name": "alreadyCreated",
      "outputs": [
        {
          "internalType": "bool",
          "name": "",
          "type": "bool"
        }
      ],
      "stateMutability": "view",
      "type": "function"
    },
    {
      "inputs": [
        {
          "internalType": "address",
          "name": "to",
          "type": "address"
        },
        {
          "internalType": "uint256",
          "name": "tokenId",
          "type": "uint256"
        }
      ],
      "name": "approve",
      "outputs": [],
      "stateMutability": "nonpayable",
      "type": "function"
    },
    {
      "inputs": [
        {
          "internalType": "address",
          "name": "owner",
          "type": "address"
        }
      ],
      "name": "balanceOf",
      "outputs": [
        {
          "internalType": "uint256",
          "name": "",
          "type": "uint256"
        }
      ],
      "stateMutability": "view",
      "type": "function"
    },
    {
      "inputs": [],
      "name": "baseURI",
      "outputs": [
        {
          "internalType": "string",
          "name": "",
          "type": "string"
        }
      ],
      "stateMutability": "view",
      "type": "function"
    },
    {
      "inputs": [
        {
          "internalType": "uint256",
          "name": "tokenId",
          "type": "uint256"
        }
      ],
      "name": "burn",
      "outputs": [],
      "stateMutability": "nonpayable",
      "type": "function"
    },
    {
      "inputs": [
        {
          "internalType": "uint256",
          "name": "",
          "type": "uint256"
        }
      ],
      "name": "cards",
      "outputs": [
        {
          "internalType": "uint256",
          "name": "collection",
          "type": "uint256"
        },
        {
          "internalType": "uint256",
          "name": "cardType",
          "type": "uint256"
        },
        {
          "internalType": "uint8",
          "name": "capacity",
          "type": "uint8"
        }
      ],
      "stateMutability": "view",
      "type": "function"
    },
    {
      "inputs": [
        {
          "internalType": "uint256",
          "name": "",
          "type": "uint256"
        },
        {
          "internalType": "uint256",
          "name": "",
          "type": "uint256"
        }
      ],
      "name": "chargesForCards",
      "outputs": [
        {
          "internalType": "uint256",
          "name": "",
          "type": "uint256"
        }
      ],
      "stateMutability": "view",
      "type": "function"
    },
    {
      "inputs": [
        {
          "internalType": "uint256",
          "name": "tokenId",
          "type": "uint256"
        }
      ],
      "name": "getApproved",
      "outputs": [
        {
          "internalType": "address",
          "name": "",
          "type": "address"
        }
      ],
      "stateMutability": "view",
      "type": "function"
    },
    {
      "inputs": [
        {
          "internalType": "address",
          "name": "owner",
          "type": "address"
        },
        {
          "internalType": "address",
          "name": "operator",
          "type": "address"
        }
      ],
      "name": "isApprovedForAll",
      "outputs": [
        {
          "internalType": "bool",
          "name": "",
          "type": "bool"
        }
      ],
      "stateMutability": "view",
      "type": "function"
    },
    {
      "inputs": [],
      "name": "maxForEachCard",
      "outputs": [
        {
          "internalType": "uint256",
          "name": "",
          "type": "uint256"
        }
      ],
      "stateMutability": "view",
      "type": "function"
    },
    {
      "inputs": [],
      "name": "name",
      "outputs": [
        {
          "internalType": "string",
          "name": "",
          "type": "string"
        }
      ],
      "stateMutability": "view",
      "type": "function"
    },
    {
      "inputs": [],
      "name": "owner",
      "outputs": [
        {
          "internalType": "address",
          "name": "",
          "type": "address"
        }
      ],
      "stateMutability": "view",
      "type": "function"
    },
    {
      "inputs": [
        {
          "internalType": "uint256",
          "name": "tokenId",
          "type": "uint256"
        }
      ],
      "name": "ownerOf",
      "outputs": [
        {
          "internalType": "address",
          "name": "",
          "type": "address"
        }
      ],
      "stateMutability": "view",
      "type": "function"
    },
    {
      "inputs": [],
      "name": "renounceOwnership",
      "outputs": [],
      "stateMutability": "nonpayable",
      "type": "function"
    },
    {
      "inputs": [
        {
          "internalType": "address",
          "name": "from",
          "type": "address"
        },
        {
          "internalType": "address",
          "name": "to",
          "type": "address"
        },
        {
          "internalType": "uint256",
          "name": "tokenId",
          "type": "uint256"
        }
      ],
      "name": "safeTransferFrom",
      "outputs": [],
      "stateMutability": "nonpayable",
      "type": "function"
    },
    {
      "inputs": [
        {
          "internalType": "address",
          "name": "from",
          "type": "address"
        },
        {
          "internalType": "address",
          "name": "to",
          "type": "address"
        },
        {
          "internalType": "uint256",
          "name": "tokenId",
          "type": "uint256"
        },
        {
          "internalType": "bytes",
          "name": "_data",
          "type": "bytes"
        }
      ],
      "name": "safeTransferFrom",
      "outputs": [],
      "stateMutability": "nonpayable",
      "type": "function"
    },
    {
      "inputs": [
        {
          "internalType": "address",
          "name": "operator",
          "type": "address"
        },
        {
          "internalType": "bool",
          "name": "approved",
          "type": "bool"
        }
      ],
      "name": "setApprovalForAll",
      "outputs": [],
      "stateMutability": "nonpayable",
      "type": "function"
    },
    {
      "inputs": [
        {
          "internalType": "bytes4",
          "name": "interfaceId",
          "type": "bytes4"
        }
      ],
      "name": "supportsInterface",
      "outputs": [
        {
          "internalType": "bool",
          "name": "",
          "type": "bool"
        }
      ],
      "stateMutability": "view",
      "type": "function"
    },
    {
      "inputs": [],
      "name": "symbol",
      "outputs": [
        {
          "internalType": "string",
          "name": "",
          "type": "string"
        }
      ],
      "stateMutability": "view",
      "type": "function"
    },
    {
      "inputs": [
        {
          "internalType": "uint256",
          "name": "index",
          "type": "uint256"
        }
      ],
      "name": "tokenByIndex",
      "outputs": [
        {
          "internalType": "uint256",
          "name": "",
          "type": "uint256"
        }
      ],
      "stateMutability": "view",
      "type": "function"
    },
    {
      "inputs": [
        {
          "internalType": "address",
          "name": "owner",
          "type": "address"
        },
        {
          "internalType": "uint256",
          "name": "index",
          "type": "uint256"
        }
      ],
      "name": "tokenOfOwnerByIndex",
      "outputs": [
        {
          "internalType": "uint256",
          "name": "",
          "type": "uint256"
        }
      ],
      "stateMutability": "view",
      "type": "function"
    },
    {
      "inputs": [
        {
          "internalType": "uint256",
          "name": "tokenId",
          "type": "uint256"
        }
      ],
      "name": "tokenURI",
      "outputs": [
        {
          "internalType": "string",
          "name": "",
          "type": "string"
        }
      ],
      "stateMutability": "view",
      "type": "function"
    },
    {
      "inputs": [],
      "name": "totalSupply",
      "outputs": [
        {
          "internalType": "uint256",
          "name": "",
          "type": "uint256"
        }
      ],
      "stateMutability": "view",
      "type": "function"
    },
    {
      "inputs": [
        {
          "internalType": "address",
          "name": "from",
          "type": "address"
        },
        {
          "internalType": "address",
          "name": "to",
          "type": "address"
        },
        {
          "internalType": "uint256",
          "name": "tokenId",
          "type": "uint256"
        }
      ],
      "name": "transferFrom",
      "outputs": [],
      "stateMutability": "nonpayable",
      "type": "function"
    },
    {
      "inputs": [
        {
          "internalType": "address",
          "name": "newOwner",
          "type": "address"
        }
      ],
      "name": "transferOwnership",
      "outputs": [],
      "stateMutability": "nonpayable",
      "type": "function"
    },
    {
      "inputs": [
        {
          "internalType": "uint256",
          "name": "cardId",
          "type": "uint256"
        },
        {
          "internalType": "uint256",
          "name": "insertId",
          "type": "uint256"
        }
      ],
      "name": "addHistoryOfCards",
      "outputs": [],
      "stateMutability": "nonpayable",
      "type": "function"
    },
    {
      "inputs": [
        {
          "internalType": "uint256",
          "name": "cardId",
          "type": "uint256"
        }
      ],
      "name": "getAllHistoryOfCards",
      "outputs": [
        {
          "internalType": "uint256[]",
          "name": "",
          "type": "uint256[]"
        }
      ],
      "stateMutability": "view",
      "type": "function"
    },
    {
      "inputs": [
        {
          "internalType": "uint256",
          "name": "collection",
          "type": "uint256"
        },
        {
          "internalType": "uint256",
          "name": "cardType",
          "type": "uint256"
        }
      ],
      "name": "mintCard",
      "outputs": [],
      "stateMutability": "nonpayable",
      "type": "function"
    },
    {
      "inputs": [
        {
          "internalType": "uint256[]",
          "name": "collections",
          "type": "uint256[]"
        },
        {
          "internalType": "uint256[]",
          "name": "cardTypes",
          "type": "uint256[]"
        }
      ],
      "name": "mintAll",
      "outputs": [],
      "stateMutability": "nonpayable",
      "type": "function"
    },
    {
      "inputs": [
        {
          "internalType": "uint256",
          "name": "_Id",
          "type": "uint256"
        }
      ],
      "name": "getCard",
      "outputs": [
        {
          "internalType": "uint256",
          "name": "collection",
          "type": "uint256"
        },
        {
          "internalType": "uint256",
          "name": "cardType",
          "type": "uint256"
        },
        {
          "internalType": "uint16",
          "name": "capacity",
          "type": "uint16"
        }
      ],
      "stateMutability": "view",
      "type": "function"
    },
    {
      "inputs": [
        {
          "internalType": "uint256",
          "name": "cardId",
          "type": "uint256"
        }
      ],
      "name": "addCardsToForge",
      "outputs": [],
      "stateMutability": "nonpayable",
      "type": "function"
    },
    {
      "inputs": [
        {
          "internalType": "uint256",
          "name": "cardId",
          "type": "uint256"
        },
        {
          "internalType": "uint256",
          "name": "insertId",
          "type": "uint256"
        }
      ],
      "name": "removeCardsToForge",
      "outputs": [],
      "stateMutability": "nonpayable",
      "type": "function"
    },
    {
      "inputs": [
        {
          "internalType": "uint256",
          "name": "cardId",
          "type": "uint256"
        }
      ],
      "name": "removeCardsToForge",
      "outputs": [],
      "stateMutability": "nonpayable",
      "type": "function"
    },
    {
      "inputs": [],
      "name": "getAllCards",
      "outputs": [
        {
          "internalType": "uint256[]",
          "name": "",
          "type": "uint256[]"
        }
      ],
      "stateMutability": "view",
      "type": "function"
    },
    {
      "inputs": [
        {
          "internalType": "uint256",
          "name": "toChargeId",
          "type": "uint256"
        },
        {
          "internalType": "uint256",
          "name": "key1Id",
          "type": "uint256"
        },
        {
          "internalType": "uint256",
          "name": "key2Id",
          "type": "uint256"
        }
      ],
      "name": "chargeCards",
      "outputs": [],
      "stateMutability": "nonpayable",
      "type": "function"
    },
    {
      "inputs": [
        {
          "internalType": "uint256",
          "name": "destroyerId",
          "type": "uint256"
        },
        {
          "internalType": "uint256",
          "name": "consumedId",
          "type": "uint256"
        }
      ],
      "name": "destroyCard",
      "outputs": [
        {
          "internalType": "uint256",
          "name": "capacity",
          "type": "uint256"
        },
        {
          "internalType": "uint256",
          "name": "cardType",
          "type": "uint256"
        }
      ],
      "stateMutability": "nonpayable",
      "type": "function"
    },
    {
      "inputs": [
        {
          "internalType": "uint256",
          "name": "firstCardId",
          "type": "uint256"
        },
        {
          "internalType": "uint256",
          "name": "secondCardId",
          "type": "uint256"
        },
        {
          "internalType": "uint256",
          "name": "cardTypeToForge",
          "type": "uint256"
        }
      ],
      "name": "forgeCard",
      "outputs": [],
      "stateMutability": "nonpayable",
      "type": "function"
    },
    {
      "inputs": [],
      "name": "getCardByOwner",
      "outputs": [
        {
          "internalType": "uint256[]",
          "name": "",
          "type": "uint256[]"
        }
      ],
      "stateMutability": "view",
      "type": "function"
    }
  ],
  "bytecode": "0x60806040523480156200001157600080fd5b506040518060400160405280600d81526020017f63727970746f486973746f7279000000000000000000000000000000000000008152506040518060400160405280600281526020017f4348000000000000000000000000000000000000000000000000000000000000815250620000966301ffc9a760e01b620001c960201b60201c565b8160069080519060200190620000ae929190620002da565b508060079080519060200190620000c7929190620002da565b50620000e06380ac58cd60e01b620001c960201b60201c565b620000f8635b5e139f60e01b620001c960201b60201c565b6200011063780e9d6360e01b620001c960201b60201c565b5050600062000124620002d260201b60201c565b905080600a60006101000a81548173ffffffffffffffffffffffffffffffffffffffff021916908373ffffffffffffffffffffffffffffffffffffffff1602179055508073ffffffffffffffffffffffffffffffffffffffff16600073ffffffffffffffffffffffffffffffffffffffff167f8be0079c531659141344cd1fd0a4f28419497f9722a3daafe3b4186f6b6457e060405160405180910390a35062000389565b63ffffffff60e01b817bffffffffffffffffffffffffffffffffffffffffffffffffffffffff1916141562000266576040517f08c379a000000000000000000000000000000000000000000000000000000000815260040180806020018281038252601c8152602001807f4552433136353a20696e76616c696420696e746572666163652069640000000081525060200191505060405180910390fd5b6001600080837bffffffffffffffffffffffffffffffffffffffffffffffffffffffff19167bffffffffffffffffffffffffffffffffffffffffffffffffffffffff1916815260200190815260200160002060006101000a81548160ff02191690831515021790555050565b600033905090565b828054600181600116156101000203166002900490600052602060002090601f016020900481019282601f106200031d57805160ff19168380011785556200034e565b828001600101855582156200034e579182015b828111156200034d57825182559160200191906001019062000330565b5b5090506200035d919062000361565b5090565b6200038691905b808211156200038257600081600090555060010162000368565b5090565b90565b614bd180620003996000396000f3fe608060405234801561001057600080fd5b50600436106102535760003560e01c8063715018a611610146578063a22cb465116100c3578063cea1351611610087578063cea1351614610f63578063d28d885214610fc2578063e985e9c514611045578063ecc0a5a2146110c1578063f2fde38b14611144578063f6a7c5521461118857610253565b8063a22cb46514610ca2578063a80c157614610cf2578063b09f126614610d34578063b88d4fde14610db7578063c87b56dd14610ebc57610253565b80638dc107681161010a5780638dc1076814610adf5780638ed0cd6914610b355780639188d31214610b7b578063921af81614610bd357806395d89b4114610c1f57610253565b8063715018a6146109c657806378cf5de5146109d05780637ee154ed146109fe5780638c4a59df14610a365780638da5cb5b14610a9557610253565b806329ebdb5d116101d45780634f6ccce7116101985780634f6ccce7146107f95780636352211e1461083b57806364362244146108a95780636c0360eb146108eb57806370a082311461096e57610253565b806329ebdb5d1461068a5780632f745c59146106a857806342842e0e1461070a57806342966c6814610778578063499d6d2b146107a657610253565b806309ad60821161021b57806309ad6082146104425780630b6932e71461058e5780630e427f17146105c657806318160ddd146105fe57806323b872dd1461061c57610253565b806301ffc9a71461025857806304c52685146102bd57806306fdde0314610303578063081812fc14610386578063095ea7b3146103f4575b600080fd5b6102a36004803603602081101561026e57600080fd5b8101908080357bffffffffffffffffffffffffffffffffffffffffffffffffffffffff191690602001909291905050506111b6565b604051808215151515815260200191505060405180910390f35b6102e9600480360360208110156102d357600080fd5b810190808035906020019092919050505061121d565b604051808215151515815260200191505060405180910390f35b61030b61123d565b6040518080602001828103825283818151815260200191508051906020019080838360005b8381101561034b578082015181840152602081019050610330565b50505050905090810190601f1680156103785780820380516001836020036101000a031916815260200191505b509250505060405180910390f35b6103b26004803603602081101561039c57600080fd5b81019080803590602001909291905050506112df565b604051808273ffffffffffffffffffffffffffffffffffffffff1673ffffffffffffffffffffffffffffffffffffffff16815260200191505060405180910390f35b6104406004803603604081101561040a57600080fd5b81019080803573ffffffffffffffffffffffffffffffffffffffff1690602001909291908035906020019092919050505061137a565b005b61058c6004803603604081101561045857600080fd5b810190808035906020019064010000000081111561047557600080fd5b82018360208201111561048757600080fd5b803590602001918460208302840111640100000000831117156104a957600080fd5b919080806020026020016040519081016040528093929190818152602001838360200280828437600081840152601f19601f8201169050808301925050505050505091929192908035906020019064010000000081111561050957600080fd5b82018360208201111561051b57600080fd5b8035906020019184602083028401116401000000008311171561053d57600080fd5b919080806020026020016040519081016040528093929190818152602001838360200280828437600081840152601f19601f8201169050808301925050505050505091929192905050506114be565b005b6105c4600480360360408110156105a457600080fd5b8101908080359060200190929190803590602001909291905050506115e5565b005b6105fc600480360360408110156105dc57600080fd5b810190808035906020019092919080359060200190929190505050611625565b005b610606611786565b6040518082815260200191505060405180910390f35b6106886004803603606081101561063257600080fd5b81019080803573ffffffffffffffffffffffffffffffffffffffff169060200190929190803573ffffffffffffffffffffffffffffffffffffffff16906020019092919080359060200190929190505050611797565b005b61069261180d565b6040518082815260200191505060405180910390f35b6106f4600480360360408110156106be57600080fd5b81019080803573ffffffffffffffffffffffffffffffffffffffff16906020019092919080359060200190929190505050611812565b6040518082815260200191505060405180910390f35b6107766004803603606081101561072057600080fd5b81019080803573ffffffffffffffffffffffffffffffffffffffff169060200190929190803573ffffffffffffffffffffffffffffffffffffffff1690602001909291908035906020019092919050505061186d565b005b6107a46004803603602081101561078e57600080fd5b810190808035906020019092919050505061188d565b005b6107dc600480360360408110156107bc57600080fd5b8101908080359060200190929190803590602001909291905050506118ff565b604051808381526020018281526020019250505060405180910390f35b6108256004803603602081101561080f57600080fd5b8101908080359060200190929190505050611b78565b6040518082815260200191505060405180910390f35b6108676004803603602081101561085157600080fd5b8101908080359060200190929190505050611b9b565b604051808273ffffffffffffffffffffffffffffffffffffffff1673ffffffffffffffffffffffffffffffffffffffff16815260200191505060405180910390f35b6108e9600480360360608110156108bf57600080fd5b81019080803590602001909291908035906020019092919080359060200190929190505050611bd2565b005b6108f3611db6565b6040518080602001828103825283818151815260200191508051906020019080838360005b83811015610933578082015181840152602081019050610918565b50505050905090810190601f1680156109605780820380516001836020036101000a031916815260200191505b509250505060405180910390f35b6109b06004803603602081101561098457600080fd5b81019080803573ffffffffffffffffffffffffffffffffffffffff169060200190929190505050611e58565b6040518082815260200191505060405180910390f35b6109ce611f2d565b005b6109fc600480360360208110156109e657600080fd5b81019080803590602001909291905050506120b8565b005b610a3460048036036040811015610a1457600080fd5b810190808035906020019092919080359060200190929190505050612114565b005b610a3e612154565b6040518080602001828103825283818151815260200191508051906020019060200280838360005b83811015610a81578082015181840152602081019050610a66565b505050509050019250505060405180910390f35b610a9d6121f1565b604051808273ffffffffffffffffffffffffffffffffffffffff1673ffffffffffffffffffffffffffffffffffffffff16815260200191505060405180910390f35b610b0b60048036036020811015610af557600080fd5b810190808035906020019092919050505061221b565b604051808481526020018381526020018260ff1660ff168152602001935050505060405180910390f35b610b6160048036036020811015610b4b57600080fd5b8101908080359060200190929190505050612252565b604051808215151515815260200191505060405180910390f35b610ba760048036036020811015610b9157600080fd5b8101908080359060200190929190505050612272565b604051808481526020018381526020018261ffff1661ffff168152602001935050505060405180910390f35b610c0960048036036040811015610be957600080fd5b8101908080359060200190929190803590602001909291905050506122ba565b6040518082815260200191505060405180910390f35b610c276122df565b6040518080602001828103825283818151815260200191508051906020019080838360005b83811015610c67578082015181840152602081019050610c4c565b50505050905090810190601f168015610c945780820380516001836020036101000a031916815260200191505b509250505060405180910390f35b610cf060048036036040811015610cb857600080fd5b81019080803573ffffffffffffffffffffffffffffffffffffffff169060200190929190803515159060200190929190505050612381565b005b610d3260048036036060811015610d0857600080fd5b81019080803590602001909291908035906020019092919080359060200190929190505050612539565b005b610d3c6129fb565b6040518080602001828103825283818151815260200191508051906020019080838360005b83811015610d7c578082015181840152602081019050610d61565b50505050905090810190601f168015610da95780820380516001836020036101000a031916815260200191505b509250505060405180910390f35b610eba60048036036080811015610dcd57600080fd5b81019080803573ffffffffffffffffffffffffffffffffffffffff169060200190929190803573ffffffffffffffffffffffffffffffffffffffff1690602001909291908035906020019092919080359060200190640100000000811115610e3457600080fd5b820183602082011115610e4657600080fd5b80359060200191846001830284011164010000000083111715610e6857600080fd5b91908080601f016020809104026020016040519081016040528093929190818152602001838380828437600081840152601f19601f820116905080830192505050505050509192919290505050612a34565b005b610ee860048036036020811015610ed257600080fd5b8101908080359060200190929190505050612aac565b6040518080602001828103825283818151815260200191508051906020019080838360005b83811015610f28578082015181840152602081019050610f0d565b50505050905090810190601f168015610f555780820380516001836020036101000a031916815260200191505b509250505060405180910390f35b610f6b612d95565b6040518080602001828103825283818151815260200191508051906020019060200280838360005b83811015610fae578082015181840152602081019050610f93565b505050509050019250505060405180910390f35b610fca612eb3565b6040518080602001828103825283818151815260200191508051906020019080838360005b8381101561100a578082015181840152602081019050610fef565b50505050905090810190601f1680156110375780820380516001836020036101000a031916815260200191505b509250505060405180910390f35b6110a76004803603604081101561105b57600080fd5b81019080803573ffffffffffffffffffffffffffffffffffffffff169060200190929190803573ffffffffffffffffffffffffffffffffffffffff169060200190929190505050612eec565b604051808215151515815260200191505060405180910390f35b6110ed600480360360208110156110d757600080fd5b8101908080359060200190929190505050612f80565b6040518080602001828103825283818151815260200191508051906020019060200280838360005b83811015611130578082015181840152602081019050611115565b505050509050019250505060405180910390f35b6111866004803603602081101561115a57600080fd5b81019080803573ffffffffffffffffffffffffffffffffffffffff169060200190929190505050613039565b005b6111b46004803603602081101561119e57600080fd5b8101908080359060200190929190505050613249565b005b6000806000837bffffffffffffffffffffffffffffffffffffffffffffffffffffffff19167bffffffffffffffffffffffffffffffffffffffffffffffffffffffff1916815260200190815260200160002060009054906101000a900460ff169050919050565b60116020528060005260406000206000915054906101000a900460ff1681565b606060068054600181600116156101000203166002900480601f0160208091040260200160405190810160405280929190818152602001828054600181600116156101000203166002900480156112d55780601f106112aa576101008083540402835291602001916112d5565b820191906000526020600020905b8154815290600101906020018083116112b857829003601f168201915b5050505050905090565b60006112ea826132a5565b61133f576040517f08c379a000000000000000000000000000000000000000000000000000000000815260040180806020018281038252602c815260200180614a96602c913960400191505060405180910390fd5b6004600083815260200190815260200160002060009054906101000a900473ffffffffffffffffffffffffffffffffffffffff169050919050565b600061138582611b9b565b90508073ffffffffffffffffffffffffffffffffffffffff168373ffffffffffffffffffffffffffffffffffffffff16141561140c576040517f08c379a0000000000000000000000000000000000000000000000000000000008152600401808060200182810382526021815260200180614b1a6021913960400191505060405180910390fd5b8073ffffffffffffffffffffffffffffffffffffffff1661142b6132c2565b73ffffffffffffffffffffffffffffffffffffffff16148061145a5750611459816114546132c2565b612eec565b5b6114af576040517f08c379a00000000000000000000000000000000000000000000000000000000081526004018080602001828103825260388152602001806149e96038913960400191505060405180910390fd5b6114b983836132ca565b505050565b6114c66132c2565b73ffffffffffffffffffffffffffffffffffffffff16600a60009054906101000a900473ffffffffffffffffffffffffffffffffffffffff1673ffffffffffffffffffffffffffffffffffffffff1614611588576040517f08c379a00000000000000000000000000000000000000000000000000000000081526004018080602001828103825260208152602001807f4f776e61626c653a2063616c6c6572206973206e6f7420746865206f776e657281525060200191505060405180910390fd5b60008090505b81518110156115e05760008382815181106115a557fe5b6020026020010151905060008383815181106115bd57fe5b602002602001015190506115d18282611625565b5050808060010191505061158e565b505050565b611620600e6000838152602001908152602001600020600101546013600085815260200190815260200160002061338390919063ffffffff16565b505050565b61162d6132c2565b73ffffffffffffffffffffffffffffffffffffffff16600a60009054906101000a900473ffffffffffffffffffffffffffffffffffffffff1673ffffffffffffffffffffffffffffffffffffffff16146116ef576040517f08c379a00000000000000000000000000000000000000000000000000000000081526004018080602001828103825260208152602001807f4f776e61626c653a2063616c6c6572206973206e6f7420746865206f776e657281525060200191505060405180910390fd5b600015156010600083815260200190815260200160002060009054906101000a900460ff1615151461172057600080fd5b60016010600083815260200190815260200160002060006101000a81548160ff02191690831515021790555060008090505b6003811015611781576000611767848461339d565b90506117733382613403565b508080600101915050611752565b505050565b60006117926002613421565b905090565b6117a86117a26132c2565b82613436565b6117fd576040517f08c379a0000000000000000000000000000000000000000000000000000000008152600401808060200182810382526031815260200180614b3b6031913960400191505060405180910390fd5b61180883838361352a565b505050565b600381565b600061186582600160008673ffffffffffffffffffffffffffffffffffffffff1673ffffffffffffffffffffffffffffffffffffffff16815260200190815260200160002061376d90919063ffffffff16565b905092915050565b61188883838360405180602001604052806000815250612a34565b505050565b61189e6118986132c2565b82613436565b6118f3576040517f08c379a0000000000000000000000000000000000000000000000000000000008152600401808060200182810382526030815260200180614b6c6030913960400191505060405180910390fd5b6118fc81613787565b50565b600080600e600084815260200190815260200160002060010154600e6000868152602001908152602001600020600101541461193a57600080fd5b3373ffffffffffffffffffffffffffffffffffffffff1661195a85611b9b565b73ffffffffffffffffffffffffffffffffffffffff161461197a57600080fd5b3373ffffffffffffffffffffffffffffffffffffffff1661199a84611b9b565b73ffffffffffffffffffffffffffffffffffffffff16146119ba57600080fd5b600e600084815260200190815260200160002060020160009054906101000a900460ff16600e600086815260200190815260200160002060020160009054906101000a900460ff1601600e600086815260200190815260200160002060020160006101000a81548160ff021916908360ff160217905550611a3a8361188d565b60008090505b611a4984612f80565b51811015611b2b576000611a5c85612f80565b8281518110611a6757fe5b602002602001015190506000600e600087815260200190815260200160002060030160008381526020019081526020016000205414611b1d57600e6000868152602001908152602001600020600301600082815260200190815260200160002054600e600088815260200190815260200160002060030160008381526020019081526020016000205401600e60008881526020019081526020016000206003016000838152602001908152602001600020819055505b508080600101915050611a40565b50600e600085815260200190815260200160002060010154600e600086815260200190815260200160002060020160009054906101000a900460ff168060ff169050915091509250929050565b600080611b8f8360026138c190919063ffffffff16565b50905080915050919050565b6000611bcb82604051806060016040528060298152602001614a4b6029913960026138f09092919063ffffffff16565b9050919050565b6000600e600085815260200190815260200160002060030160008381526020019081526020016000205411611c0657600080fd5b6000600e600084815260200190815260200160002060030160008381526020019081526020016000205411611c3a57600080fd5b3373ffffffffffffffffffffffffffffffffffffffff16611c5a84611b9b565b73ffffffffffffffffffffffffffffffffffffffff1614611c7a57600080fd5b3373ffffffffffffffffffffffffffffffffffffffff16611c9a83611b9b565b73ffffffffffffffffffffffffffffffffffffffff1614611cba57600080fd5b6001600e6000858152602001908152602001600020600301600083815260200190815260200160002050506001600e6000848152602001908152602001600020600301600083815260200190815260200160002050506060611d1a612d95565b905060008090505b8151811015611daf5782600e6000848481518110611d3c57fe5b60200260200101518152602001908152602001600020600101541415611da257611d81611d676121f1565b33848481518110611d7457fe5b602002602001015161186d565b611d9d828281518110611d9057fe5b60200260200101516120b8565b611daf565b8080600101915050611d22565b5050505050565b606060098054600181600116156101000203166002900480601f016020809104026020016040519081016040528092919081815260200182805460018160011615610100020316600290048015611e4e5780601f10611e2357610100808354040283529160200191611e4e565b820191906000526020600020905b815481529060010190602001808311611e3157829003601f168201915b5050505050905090565b60008073ffffffffffffffffffffffffffffffffffffffff168273ffffffffffffffffffffffffffffffffffffffff161415611edf576040517f08c379a000000000000000000000000000000000000000000000000000000000815260040180806020018281038252602a815260200180614a21602a913960400191505060405180910390fd5b611f26600160008473ffffffffffffffffffffffffffffffffffffffff1673ffffffffffffffffffffffffffffffffffffffff16815260200190815260200160002061390f565b9050919050565b611f356132c2565b73ffffffffffffffffffffffffffffffffffffffff16600a60009054906101000a900473ffffffffffffffffffffffffffffffffffffffff1673ffffffffffffffffffffffffffffffffffffffff1614611ff7576040517f08c379a00000000000000000000000000000000000000000000000000000000081526004018080602001828103825260208152602001807f4f776e61626c653a2063616c6c6572206973206e6f7420746865206f776e657281525060200191505060405180910390fd5b600073ffffffffffffffffffffffffffffffffffffffff16600a60009054906101000a900473ffffffffffffffffffffffffffffffffffffffff1673ffffffffffffffffffffffffffffffffffffffff167f8be0079c531659141344cd1fd0a4f28419497f9722a3daafe3b4186f6b6457e060405160405180910390a36000600a60006101000a81548173ffffffffffffffffffffffffffffffffffffffff021916908373ffffffffffffffffffffffffffffffffffffffff160217905550565b61211081601260006120c86121f1565b73ffffffffffffffffffffffffffffffffffffffff1673ffffffffffffffffffffffffffffffffffffffff16815260200190815260200160002061338390919063ffffffff16565b5050565b61214f600e6000838152602001908152602001600020600101546013600085815260200190815260200160002061392490919063ffffffff16565b505050565b6060600061216133611e58565b90506060816040519080825280602002602001820160405280156121945781602001602082028038833980820191505090505b509050600080905060008090505b838110156121e75760006121b63383611812565b9050808484815181106121c557fe5b60200260200101818152505082806001019350505080806001019150506121a2565b5081935050505090565b6000600a60009054906101000a900473ffffffffffffffffffffffffffffffffffffffff16905090565b600e6020528060005260406000206000915090508060000154908060010154908060020160009054906101000a900460ff16905083565b60106020528060005260406000206000915054906101000a900460ff1681565b600080600080600e6000868152602001908152602001600020905080600001549350806001015492508060020160009054906101000a900460ff1660ff169150509193909250565b600f602052816000526040600020602052806000526040600020600091509150505481565b606060078054600181600116156101000203166002900480601f0160208091040260200160405190810160405280929190818152602001828054600181600116156101000203166002900480156123775780601f1061234c57610100808354040283529160200191612377565b820191906000526020600020905b81548152906001019060200180831161235a57829003601f168201915b5050505050905090565b6123896132c2565b73ffffffffffffffffffffffffffffffffffffffff168273ffffffffffffffffffffffffffffffffffffffff16141561242a576040517f08c379a00000000000000000000000000000000000000000000000000000000081526004018080602001828103825260198152602001807f4552433732313a20617070726f766520746f2063616c6c65720000000000000081525060200191505060405180910390fd5b80600560006124376132c2565b73ffffffffffffffffffffffffffffffffffffffff1673ffffffffffffffffffffffffffffffffffffffff16815260200190815260200160002060008473ffffffffffffffffffffffffffffffffffffffff1673ffffffffffffffffffffffffffffffffffffffff16815260200190815260200160002060006101000a81548160ff0219169083151502179055508173ffffffffffffffffffffffffffffffffffffffff166124e46132c2565b73ffffffffffffffffffffffffffffffffffffffff167f17307eab39ab6107e8899845ad3d59bd9653f200f220920489ca2b5937696c3183604051808215151515815260200191505060405180910390a35050565b6125416132c2565b73ffffffffffffffffffffffffffffffffffffffff16600a60009054906101000a900473ffffffffffffffffffffffffffffffffffffffff1673ffffffffffffffffffffffffffffffffffffffff1614612603576040517f08c379a00000000000000000000000000000000000000000000000000000000081526004018080602001828103825260208152602001807f4f776e61626c653a2063616c6c6572206973206e6f7420746865206f776e657281525060200191505060405180910390fd5b600e600083815260200190815260200160002060010154600e6000858152602001908152602001600020600101541415801561266b5750600e600082815260200190815260200160002060010154600e60008481526020019081526020016000206001015414155b6126c0576040517f08c379a000000000000000000000000000000000000000000000000000000000815260040180806020018281038252602c8152602001806148ef602c913960400191505060405180910390fd5b600e600083815260200190815260200160002060010154600e600085815260200190815260200160002060000154141580156127285750600e600082815260200190815260200160002060010154600e60008481526020019081526020016000206001015414155b61277d576040517f08c379a000000000000000000000000000000000000000000000000000000000815260040180806020018281038252602c8152602001806148ef602c913960400191505060405180910390fd5b6000151560116000600e600087815260200190815260200160002060010154815260200190815260200160002060009054906101000a900460ff161515146127c457600080fd5b600115156127d1846132a5565b1515146127dd57600080fd5b600115156127ea836132a5565b1515146127f657600080fd5b60011515612803826132a5565b15151461280f57600080fd5b600160116000600e600087815260200190815260200160002060010154815260200190815260200160002060006101000a81548160ff02191690831515021790555060008090505b600d5481116129f557600e600084815260200190815260200160002060010154600e600083815260200190815260200160002060010154141561290557600e600082815260200190815260200160002060020160009054906101000a900460ff1660ff16600e60008381526020019081526020016000206003016000600e600088815260200190815260200160002060010154815260200190815260200160002050506129048385612114565b5b600e600083815260200190815260200160002060010154600e60008381526020019081526020016000206001015414156129aa57600e600082815260200190815260200160002060020160009054906101000a900460ff1660ff16600e60008381526020019081526020016000206003016000600e600088815260200190815260200160002060010154815260200190815260200160002050506129a98285612114565b5b600e600085815260200190815260200160002060010154600e60008381526020019081526020016000206001015414156129e8576129e781613249565b5b8080600101915050612857565b50505050565b6040518060400160405280600281526020017f434800000000000000000000000000000000000000000000000000000000000081525081565b612a45612a3f6132c2565b83613436565b612a9a576040517f08c379a0000000000000000000000000000000000000000000000000000000008152600401808060200182810382526031815260200180614b3b6031913960400191505060405180910390fd5b612aa68484848461393e565b50505050565b6060612ab7826132a5565b612b0c576040517f08c379a000000000000000000000000000000000000000000000000000000000815260040180806020018281038252602f815260200180614aeb602f913960400191505060405180910390fd5b6060600860008481526020019081526020016000208054600181600116156101000203166002900480601f016020809104026020016040519081016040528092919081815260200182805460018160011615610100020316600290048015612bb55780601f10612b8a57610100808354040283529160200191612bb5565b820191906000526020600020905b815481529060010190602001808311612b9857829003601f168201915b50505050509050600060098054600181600116156101000203166002900490501415612be45780915050612d90565b600081511115612cbd576009816040516020018083805460018160011615610100020316600290048015612c4f5780601f10612c2d576101008083540402835291820191612c4f565b820191906000526020600020905b815481529060010190602001808311612c3b575b505082805190602001908083835b60208310612c805780518252602082019150602081019050602083039250612c5d565b6001836020036101000a03801982511681845116808217855250505050505090500192505050604051602081830303815290604052915050612d90565b6009612cc8846139b0565b6040516020018083805460018160011615610100020316600290048015612d265780601f10612d04576101008083540402835291820191612d26565b820191906000526020600020905b815481529060010190602001808311612d12575b505082805190602001908083835b60208310612d575780518252602082019150602081019050602083039250612d34565b6001836020036101000a038019825116818451168082178552505050505050905001925050506040516020818303038152906040529150505b919050565b60606000612de760126000612da86121f1565b73ffffffffffffffffffffffffffffffffffffffff1673ffffffffffffffffffffffffffffffffffffffff16815260200190815260200160002061390f565b9050606081604051908082528060200260200182016040528015612e1a5781602001602082028038833980820191505090505b50905060008090505b600d54811015612eaa57612e858160126000612e3d6121f1565b73ffffffffffffffffffffffffffffffffffffffff1673ffffffffffffffffffffffffffffffffffffffff16815260200190815260200160002061376d90919063ffffffff16565b828281518110612e9157fe5b6020026020010181815250508080600101915050612e23565b50809250505090565b6040518060400160405280600d81526020017f63727970746f486973746f72790000000000000000000000000000000000000081525081565b6000600560008473ffffffffffffffffffffffffffffffffffffffff1673ffffffffffffffffffffffffffffffffffffffff16815260200190815260200160002060008373ffffffffffffffffffffffffffffffffffffffff1673ffffffffffffffffffffffffffffffffffffffff16815260200190815260200160002060009054906101000a900460ff16905092915050565b60606000612f9f6013600085815260200190815260200160002061390f565b9050606081604051908082528060200260200182016040528015612fd25781602001602082028038833980820191505090505b50905060008090505b600d54811161302e57613009816013600088815260200190815260200160002061376d90919063ffffffff16565b82828151811061301557fe5b6020026020010181815250508080600101915050612fdb565b508092505050919050565b6130416132c2565b73ffffffffffffffffffffffffffffffffffffffff16600a60009054906101000a900473ffffffffffffffffffffffffffffffffffffffff1673ffffffffffffffffffffffffffffffffffffffff1614613103576040517f08c379a00000000000000000000000000000000000000000000000000000000081526004018080602001828103825260208152602001807f4f776e61626c653a2063616c6c6572206973206e6f7420746865206f776e657281525060200191505060405180910390fd5b600073ffffffffffffffffffffffffffffffffffffffff168173ffffffffffffffffffffffffffffffffffffffff161415613189576040517f08c379a000000000000000000000000000000000000000000000000000000000815260040180806020018281038252602681526020018061494d6026913960400191505060405180910390fd5b8073ffffffffffffffffffffffffffffffffffffffff16600a60009054906101000a900473ffffffffffffffffffffffffffffffffffffffff1673ffffffffffffffffffffffffffffffffffffffff167f8be0079c531659141344cd1fd0a4f28419497f9722a3daafe3b4186f6b6457e060405160405180910390a380600a60006101000a81548173ffffffffffffffffffffffffffffffffffffffff021916908373ffffffffffffffffffffffffffffffffffffffff16021790555050565b6132a181601260006132596121f1565b73ffffffffffffffffffffffffffffffffffffffff1673ffffffffffffffffffffffffffffffffffffffff16815260200190815260200160002061392490919063ffffffff16565b5050565b60006132bb826002613ae090919063ffffffff16565b9050919050565b600033905090565b816004600083815260200190815260200160002060006101000a81548173ffffffffffffffffffffffffffffffffffffffff021916908373ffffffffffffffffffffffffffffffffffffffff160217905550808273ffffffffffffffffffffffffffffffffffffffff1661333d83611b9b565b73ffffffffffffffffffffffffffffffffffffffff167f8c5be1e5ebec7d5bd14f71427d1e84f3dd0314c0f7b2291e5b200ac8c7c3b92560405160405180910390a45050565b6000613395836000018360001b613afa565b905092915050565b6000600d60008154809291906001019190505590506000600e6000838152602001908152602001600020905083816000018190555082816001018190555060018160020160006101000a81548160ff021916908360ff1602179055508191505092915050565b61341d828260405180602001604052806000815250613be2565b5050565b600061342f82600001613c53565b9050919050565b6000613441826132a5565b613496576040517f08c379a000000000000000000000000000000000000000000000000000000000815260040180806020018281038252602c8152602001806149bd602c913960400191505060405180910390fd5b60006134a183611b9b565b90508073ffffffffffffffffffffffffffffffffffffffff168473ffffffffffffffffffffffffffffffffffffffff16148061351057508373ffffffffffffffffffffffffffffffffffffffff166134f8846112df565b73ffffffffffffffffffffffffffffffffffffffff16145b8061352157506135208185612eec565b5b91505092915050565b8273ffffffffffffffffffffffffffffffffffffffff1661354a82611b9b565b73ffffffffffffffffffffffffffffffffffffffff16146135b6576040517f08c379a0000000000000000000000000000000000000000000000000000000008152600401808060200182810382526029815260200180614ac26029913960400191505060405180910390fd5b600073ffffffffffffffffffffffffffffffffffffffff168273ffffffffffffffffffffffffffffffffffffffff16141561363c576040517f08c379a00000000000000000000000000000000000000000000000000000000081526004018080602001828103825260248152602001806149736024913960400191505060405180910390fd5b613647838383613c64565b6136526000826132ca565b6136a381600160008673ffffffffffffffffffffffffffffffffffffffff1673ffffffffffffffffffffffffffffffffffffffff16815260200190815260200160002061338390919063ffffffff16565b506136f581600160008573ffffffffffffffffffffffffffffffffffffffff1673ffffffffffffffffffffffffffffffffffffffff16815260200190815260200160002061392490919063ffffffff16565b5061370c81836002613c699092919063ffffffff16565b50808273ffffffffffffffffffffffffffffffffffffffff168473ffffffffffffffffffffffffffffffffffffffff167fddf252ad1be2c89b69c2b068fc378daa952ba7f163c4a11628f55a4df523b3ef60405160405180910390a4505050565b600061377c8360000183613c9e565b60001c905092915050565b600061379282611b9b565b90506137a081600084613c64565b6137ab6000836132ca565b600060086000848152602001908152602001600020805460018160011615610100020316600290049050146137fa576008600083815260200190815260200160002060006137f9919061485f565b5b61384b82600160008473ffffffffffffffffffffffffffffffffffffffff1673ffffffffffffffffffffffffffffffffffffffff16815260200190815260200160002061338390919063ffffffff16565b50613860826002613d2190919063ffffffff16565b5081600073ffffffffffffffffffffffffffffffffffffffff168273ffffffffffffffffffffffffffffffffffffffff167fddf252ad1be2c89b69c2b068fc378daa952ba7f163c4a11628f55a4df523b3ef60405160405180910390a45050565b6000806000806138d48660000186613d3b565b915091508160001c8160001c8090509350935050509250929050565b6000613903846000018460001b84613dd4565b60001c90509392505050565b600061391d82600001613eca565b9050919050565b6000613936836000018360001b613edb565b905092915050565b61394984848461352a565b61395584848484613f4b565b6139aa576040517f08c379a000000000000000000000000000000000000000000000000000000000815260040180806020018281038252603281526020018061491b6032913960400191505060405180910390fd5b50505050565b606060008214156139f8576040518060400160405280600181526020017f30000000000000000000000000000000000000000000000000000000000000008152509050613adb565b600082905060005b60008214613a22578080600101915050600a8281613a1a57fe5b049150613a00565b6060816040519080825280601f01601f191660200182016040528015613a575781602001600182028038833980820191505090505b50905060006001830390508593505b60008414613ad357600a8481613a7857fe5b0660300160f81b82828060019003935081518110613a9257fe5b60200101907effffffffffffffffffffffffffffffffffffffffffffffffffffffffffffff1916908160001a905350600a8481613acb57fe5b049350613a66565b819450505050505b919050565b6000613af2836000018360001b614190565b905092915050565b60008083600101600084815260200190815260200160002054905060008114613bd65760006001820390506000600186600001805490500390506000866000018281548110613b4557fe5b9060005260206000200154905080876000018481548110613b6257fe5b9060005260206000200181905550600183018760010160008381526020019081526020016000208190555086600001805480613b9a57fe5b60019003818190600052602060002001600090559055866001016000878152602001908152602001600020600090556001945050505050613bdc565b60009150505b92915050565b613bec83836141b3565b613bf96000848484613f4b565b613c4e576040517f08c379a000000000000000000000000000000000000000000000000000000000815260040180806020018281038252603281526020018061491b6032913960400191505060405180910390fd5b505050565b600081600001805490509050919050565b505050565b6000613c95846000018460001b8473ffffffffffffffffffffffffffffffffffffffff1660001b6143a7565b90509392505050565b600081836000018054905011613cff576040517f08c379a00000000000000000000000000000000000000000000000000000000081526004018080602001828103825260228152602001806148cd6022913960400191505060405180910390fd5b826000018281548110613d0e57fe5b9060005260206000200154905092915050565b6000613d33836000018360001b614483565b905092915050565b60008082846000018054905011613d9d576040517f08c379a0000000000000000000000000000000000000000000000000000000008152600401808060200182810382526022815260200180614a746022913960400191505060405180910390fd5b6000846000018481548110613dae57fe5b906000526020600020906002020190508060000154816001015492509250509250929050565b60008084600101600085815260200190815260200160002054905060008114158390613e9b576040517f08c379a00000000000000000000000000000000000000000000000000000000081526004018080602001828103825283818151815260200191508051906020019080838360005b83811015613e60578082015181840152602081019050613e45565b50505050905090810190601f168015613e8d5780820380516001836020036101000a031916815260200191505b509250505060405180910390fd5b50846000016001820381548110613eae57fe5b9060005260206000209060020201600101549150509392505050565b600081600001805490509050919050565b6000613ee7838361459c565b613f40578260000182908060018154018082558091505060019003906000526020600020016000909190919091505582600001805490508360010160008481526020019081526020016000208190555060019050613f45565b600090505b92915050565b6000613f6c8473ffffffffffffffffffffffffffffffffffffffff166145bf565b613f795760019050614188565b606061410f63150b7a0260e01b613f8e6132c2565b888787604051602401808573ffffffffffffffffffffffffffffffffffffffff1673ffffffffffffffffffffffffffffffffffffffff1681526020018473ffffffffffffffffffffffffffffffffffffffff1673ffffffffffffffffffffffffffffffffffffffff16815260200183815260200180602001828103825283818151815260200191508051906020019080838360005b8381101561403e578082015181840152602081019050614023565b50505050905090810190601f16801561406b5780820380516001836020036101000a031916815260200191505b5095505050505050604051602081830303815290604052907bffffffffffffffffffffffffffffffffffffffffffffffffffffffff19166020820180517bffffffffffffffffffffffffffffffffffffffffffffffffffffffff838183161783525050505060405180606001604052806032815260200161491b603291398773ffffffffffffffffffffffffffffffffffffffff166145d29092919063ffffffff16565b9050600081806020019051602081101561412857600080fd5b8101908080519060200190929190505050905063150b7a0260e01b7bffffffffffffffffffffffffffffffffffffffffffffffffffffffff1916817bffffffffffffffffffffffffffffffffffffffffffffffffffffffff191614925050505b949350505050565b600080836001016000848152602001908152602001600020541415905092915050565b600073ffffffffffffffffffffffffffffffffffffffff168273ffffffffffffffffffffffffffffffffffffffff161415614256576040517f08c379a00000000000000000000000000000000000000000000000000000000081526004018080602001828103825260208152602001807f4552433732313a206d696e7420746f20746865207a65726f206164647265737381525060200191505060405180910390fd5b61425f816132a5565b156142d2576040517f08c379a000000000000000000000000000000000000000000000000000000000815260040180806020018281038252601c8152602001807f4552433732313a20746f6b656e20616c7265616479206d696e7465640000000081525060200191505060405180910390fd5b6142de60008383613c64565b61432f81600160008573ffffffffffffffffffffffffffffffffffffffff1673ffffffffffffffffffffffffffffffffffffffff16815260200190815260200160002061392490919063ffffffff16565b5061434681836002613c699092919063ffffffff16565b50808273ffffffffffffffffffffffffffffffffffffffff16600073ffffffffffffffffffffffffffffffffffffffff167fddf252ad1be2c89b69c2b068fc378daa952ba7f163c4a11628f55a4df523b3ef60405160405180910390a45050565b600080846001016000858152602001908152602001600020549050600081141561444e5784600001604051806040016040528086815260200185815250908060018154018082558091505060019003906000526020600020906002020160009091909190915060008201518160000155602082015181600101555050846000018054905085600101600086815260200190815260200160002081905550600191505061447c565b8285600001600183038154811061446157fe5b90600052602060002090600202016001018190555060009150505b9392505050565b6000808360010160008481526020019081526020016000205490506000811461459057600060018203905060006001866000018054905003905060008660000182815481106144ce57fe5b90600052602060002090600202019050808760000184815481106144ee57fe5b906000526020600020906002020160008201548160000155600182015481600101559050506001830187600101600083600001548152602001908152602001600020819055508660000180548061454157fe5b6001900381819060005260206000209060020201600080820160009055600182016000905550509055866001016000878152602001908152602001600020600090556001945050505050614596565b60009150505b92915050565b600080836001016000848152602001908152602001600020541415905092915050565b600080823b905060008111915050919050565b60606145e184846000856145ea565b90509392505050565b606082471015614645576040517f08c379a00000000000000000000000000000000000000000000000000000000081526004018080602001828103825260268152602001806149976026913960400191505060405180910390fd5b61464e856145bf565b6146c0576040517f08c379a000000000000000000000000000000000000000000000000000000000815260040180806020018281038252601d8152602001807f416464726573733a2063616c6c20746f206e6f6e2d636f6e747261637400000081525060200191505060405180910390fd5b600060608673ffffffffffffffffffffffffffffffffffffffff1685876040518082805190602001908083835b6020831061471057805182526020820191506020810190506020830392506146ed565b6001836020036101000a03801982511681845116808217855250505050505090500191505060006040518083038185875af1925050503d8060008114614772576040519150601f19603f3d011682016040523d82523d6000602084013e614777565b606091505b5091509150614787828286614793565b92505050949350505050565b606083156147a357829050614858565b6000835111156147b65782518084602001fd5b816040517f08c379a00000000000000000000000000000000000000000000000000000000081526004018080602001828103825283818151815260200191508051906020019080838360005b8381101561481d578082015181840152602081019050614802565b50505050905090810190601f16801561484a5780820380516001836020036101000a031916815260200191505b509250505060405180910390fd5b9392505050565b50805460018160011615610100020316600290046000825580601f1061488557506148a4565b601f0160209004906000526020600020908101906148a391906148a7565b5b50565b6148c991905b808211156148c55760008160009055506001016148ad565b5090565b9056fe456e756d657261626c655365743a20696e646578206f7574206f6620626f756e6473596f752063616e6e6f74207573652063617264732077697468207468652073616d65206361726454797065214552433732313a207472616e7366657220746f206e6f6e20455243373231526563656976657220696d706c656d656e7465724f776e61626c653a206e6577206f776e657220697320746865207a65726f20616464726573734552433732313a207472616e7366657220746f20746865207a65726f2061646472657373416464726573733a20696e73756666696369656e742062616c616e636520666f722063616c6c4552433732313a206f70657261746f7220717565727920666f72206e6f6e6578697374656e7420746f6b656e4552433732313a20617070726f76652063616c6c6572206973206e6f74206f776e6572206e6f7220617070726f76656420666f7220616c6c4552433732313a2062616c616e636520717565727920666f7220746865207a65726f20616464726573734552433732313a206f776e657220717565727920666f72206e6f6e6578697374656e7420746f6b656e456e756d657261626c654d61703a20696e646578206f7574206f6620626f756e64734552433732313a20617070726f76656420717565727920666f72206e6f6e6578697374656e7420746f6b656e4552433732313a207472616e73666572206f6620746f6b656e2074686174206973206e6f74206f776e4552433732314d657461646174613a2055524920717565727920666f72206e6f6e6578697374656e7420746f6b656e4552433732313a20617070726f76616c20746f2063757272656e74206f776e65724552433732313a207472616e736665722063616c6c6572206973206e6f74206f776e6572206e6f7220617070726f7665644552433732314275726e61626c653a2063616c6c6572206973206e6f74206f776e6572206e6f7220617070726f766564a264697066735822122034ca9c1f77c229d1b5ba5a0581866a65f25c0c723d6cadea7cc8d6395da1f0c164736f6c63430006020033",
  "source": "pragma solidity >=0.6.0;\n\nimport \"@openzeppelin/contracts/token/ERC721/ERC721.sol\";\nimport \"@openzeppelin/contracts/access/Ownable.sol\";\nimport \"@openzeppelin/contracts/token/ERC721/ERC721Burnable.sol\";\n\ncontract cryptoHistory is ERC721, Ownable, ERC721Burnable {\n    using SafeMath for uint256;\n    using Address for address;\n    using EnumerableSet for EnumerableSet.UintSet;\n    using EnumerableMap for EnumerableMap.UintToAddressMap;\n    using Strings for uint256;\n\n    constructor() public ERC721(\"cryptoHistory\", \"CH\") {}\n\n    string public constant _name = \"cryptoHistory\";\n    string public constant _symbol = \"CH\";\n    //maximum of cards with the same name\n    uint256 public constant maxForEachCard = 3;\n\n    struct Card {\n        uint256 collection;\n        uint256 cardType;\n        uint8 capacity;\n        mapping(uint256 => uint256) charges;\n    }\n\n    struct cardAttribute {\n        uint256 collection;\n        uint256 cardType;\n    }\n    //this array of cards that will be minted\n    cardAttribute[] cardAttributes;\n    //this is an array of cards that can be crafted\n    cardAttribute[] attributesToForge;\n\n    // this is used to give a number to every that is either created or minted\n    uint256 totalCards;\n\n    // this assigns a number to a card\n    mapping(uint256 => Card) public cards;\n\n    mapping(uint256 => mapping(uint256 => uint256)) public chargesForCards;\n\n    // this prevents a functon from minting the same cards few times.\n    mapping(uint256 => bool) public alreadyCreated;\n\n    // this prevents a cardType from being charged more than once\n    mapping(uint256 => bool) public alreadyCharged;\n\n    // this mapping creates an array of cards that were charged\n    mapping(address => EnumerableSet.UintSet) cardsToForge;\n\n    //this shows which cardtype a card has charges for and how many charges it has\n    mapping(uint256 => EnumerableSet.UintSet) historyOfCards;\n\n    event cardCreated(uint256 _collection, uint256 _cardType, address owner);\n\n    // historyOfCards   Enumarable.set\n\n    // adds a card ID to the array that contains the cards collectors can forge\n    function addHistoryOfCards(uint256 cardId, uint256 insertId) public {\n        historyOfCards[cardId].add(cards[insertId].cardType);\n    }\n\n    // when card is forged this will take the card out of the array\n    function removeCardsToForge(uint256 cardId, uint256 insertId) public {\n        historyOfCards[cardId].remove(cards[insertId].cardType);\n    }\n\n    // that shows all the ID's of the cards that are not forged yet\n    function getAllHistoryOfCards(uint256 cardId)\n        public\n        view\n        returns (uint256[] memory)\n    {\n        uint256 totalCardsX = historyOfCards[cardId].length();\n\n        uint256[] memory cardsX = new uint256[](totalCardsX);\n\n        for (uint256 i = 0; i <= totalCards; i++) {\n            cardsX[i] = historyOfCards[cardId].at(i);\n        }\n\n        return cardsX;\n    }\n\n    //this creates a card\n    function _createCard(uint256 _collection, uint256 _cardType)\n        private\n        returns (uint256 x)\n    {\n        x = totalCards++;\n\n        Card storage _card = cards[x];\n\n        _card.collection = _collection;\n        _card.cardType = _cardType;\n        _card.capacity = 1;\n\n        return x;\n    }\n\n    // this creates all the cards with the same cardType\n    function mintCard(uint256 collection, uint256 cardType) public onlyOwner {\n        require(alreadyCreated[cardType] == false);\n        alreadyCreated[cardType] = true;\n        for (uint256 i = 0; i < maxForEachCard; i++) {\n            uint256 x = _createCard(collection, cardType);\n            _safeMint(msg.sender, x);\n        }\n    }\n\n    // this creates all the cards and collections of the current season\n    function mintAll(uint256[] memory collections, uint256[] memory cardTypes)\n        public\n        onlyOwner\n    {\n        for (uint256 i = 0; i < cardTypes.length; i++) {\n            uint256 collection = collections[i];\n            uint256 cardType = cardTypes[i];\n            mintCard(collection, cardType);\n        }\n    }\n\n    function getCard(uint256 _Id)\n        external\n        view\n        returns (\n            uint256 collection,\n            uint256 cardType,\n            uint16 capacity\n        )\n    {\n        Card storage card = cards[_Id];\n        collection = card.collection;\n        cardType = card.cardType;\n        capacity = card.capacity;\n    }\n\n    // functions that we use to add remove from the array of charged cards\n\n    // addCardsToForge()\n    // removeCardsToForge()\n    // getAllCards()\n\n    // adds a card ID to the array that contains the cards collectors can forge\n    function addCardsToForge(uint256 cardId) public {\n        cardsToForge[owner()].add(cardId);\n    }\n\n    // when card is forged this will take the card out of the array\n    function removeCardsToForge(uint256 cardId) public {\n        cardsToForge[owner()].remove(cardId);\n    }\n\n    // that shows all the ID's of the cards that are not forged yet\n    function getAllCards() public view returns (uint256[] memory) {\n        uint256 totalCardsX = cardsToForge[owner()].length();\n\n        uint256[] memory cardsX = new uint256[](totalCardsX);\n\n        for (uint256 i = 0; i < totalCards; i++) {\n            cardsX[i] = cardsToForge[owner()].at(i);\n        }\n\n        return cardsX;\n    }\n\n    //  End of   cardsToForge   Enumarable.set\n\n    function chargeCards(\n        uint256 toChargeId,\n        uint256 key1Id,\n        uint256 key2Id\n    ) public onlyOwner {\n        require(\n            cards[toChargeId].cardType != cards[key1Id].cardType &&\n                cards[key1Id].cardType != cards[key2Id].cardType,\n            \"You cannot use cards with the same cardType!\"\n        );\n        require(\n            cards[toChargeId].collection != cards[key1Id].cardType &&\n                cards[key1Id].cardType != cards[key2Id].cardType,\n            \"You cannot use cards with the same cardType!\"\n        );\n\n        require(alreadyCharged[cards[toChargeId].cardType] == false);\n        require(_exists(toChargeId) == true);\n        require(_exists(key1Id) == true);\n        require(_exists(key2Id) == true);\n\n        alreadyCharged[cards[toChargeId].cardType] = true;\n        for (uint256 i = 0; i <= totalCards; i++) {\n            if (cards[i].cardType == cards[key1Id].cardType) {\n                cards[i].charges[cards[toChargeId].cardType] ==\n                    cards[i].capacity;\n                addHistoryOfCards(key1Id, toChargeId);\n            }\n            if (cards[i].cardType == cards[key2Id].cardType) {\n                cards[i].charges[cards[toChargeId].cardType] ==\n                    cards[i].capacity;\n                addHistoryOfCards(key2Id, toChargeId);\n            }\n            if (cards[i].cardType == cards[toChargeId].cardType) {\n                addCardsToForge(i);\n            }\n        }\n    }\n\n    //this destryoes a card and makes the other card stronger\n    function destroyCard(uint256 destroyerId, uint256 consumedId)\n        public\n        returns (uint256 capacity, uint256 cardType)\n    {\n        require(cards[destroyerId].cardType == cards[consumedId].cardType);\n        require(ownerOf(destroyerId) == msg.sender);\n        require(ownerOf(consumedId) == msg.sender);\n\n        cards[destroyerId].capacity =\n            cards[destroyerId].capacity +\n            cards[consumedId].capacity;\n\n        burn(consumedId);\n        for (uint256 i = 0; i < getAllHistoryOfCards(consumedId).length; i++) {\n            uint256 x = getAllHistoryOfCards(consumedId)[i];\n\n            if (cards[consumedId].charges[x] != 0) {\n                cards[destroyerId].charges[x] =\n                    cards[destroyerId].charges[x] +\n                    cards[consumedId].charges[x];\n            }\n        }\n\n        return (cards[destroyerId].cardType, cards[destroyerId].capacity);\n    }\n\n    //this forges a card  and consumes charges of other cards\n    function forgeCard(\n        uint256 firstCardId,\n        uint256 secondCardId,\n        uint256 cardTypeToForge\n    ) public {\n        require(cards[firstCardId].charges[cardTypeToForge] > 0);\n        require(cards[secondCardId].charges[cardTypeToForge] > 0);\n        require(ownerOf(firstCardId) == msg.sender);\n        require(ownerOf(secondCardId) == msg.sender);\n\n        cards[firstCardId].charges[cardTypeToForge] - 1;\n        cards[secondCardId].charges[cardTypeToForge] - 1;\n        uint256[] memory x = getAllCards();\n        for (uint256 i = 0; i < x.length; i++) {\n            if (cards[x[i]].cardType == cardTypeToForge) {\n                safeTransferFrom(owner(), msg.sender, x[i]);\n                removeCardsToForge(x[i]);\n                break;\n            }\n        }\n    }\n\n    function getCardByOwner() public view returns (uint256[] memory) {\n        uint256 x = balanceOf(msg.sender);\n        uint256[] memory result = new uint256[](x); //new\n        uint256 counter = 0;\n        for (uint256 i = 0; i < x; i++) {\n            uint256 y = tokenOfOwnerByIndex(msg.sender, i);\n            result[counter] = y;\n            counter++;\n        }\n        return result;\n    }\n}\n",
  "sourcePath": "C:\\Users\\Owner\\Desktop\\cryptycats\\cryptoHistory\\contracts\\cryptoHistory.sol",
  "compiler": {
    "name": "solc",
    "version": "0.6.2+commit.bacdbe57.Emscripten.clang"
  },
  "schemaVersion": "3.2.0",
  "updatedAt": "2021-03-30T20:41:11.621Z",
  "devdoc": {
    "methods": {
      "approve(address,uint256)": {
        "details": "See {IERC721-approve}."
      },
      "balanceOf(address)": {
        "details": "See {IERC721-balanceOf}."
      },
      "baseURI()": {
        "details": "Returns the base URI set via {_setBaseURI}. This will be automatically added as a prefix in {tokenURI} to each token's URI, or to the token ID if no specific URI is set for that token ID."
      },
      "burn(uint256)": {
        "details": "Burns `tokenId`. See {ERC721-_burn}.     * Requirements:     * - The caller must own `tokenId` or be an approved operator."
      },
      "getApproved(uint256)": {
        "details": "See {IERC721-getApproved}."
      },
      "isApprovedForAll(address,address)": {
        "details": "See {IERC721-isApprovedForAll}."
      },
      "name()": {
        "details": "See {IERC721Metadata-name}."
      },
      "owner()": {
        "details": "Returns the address of the current owner."
      },
      "ownerOf(uint256)": {
        "details": "See {IERC721-ownerOf}."
      },
      "renounceOwnership()": {
        "details": "Leaves the contract without owner. It will not be possible to call `onlyOwner` functions anymore. Can only be called by the current owner.     * NOTE: Renouncing ownership will leave the contract without an owner, thereby removing any functionality that is only available to the owner."
      },
      "safeTransferFrom(address,address,uint256)": {
        "details": "See {IERC721-safeTransferFrom}."
      },
      "safeTransferFrom(address,address,uint256,bytes)": {
        "details": "See {IERC721-safeTransferFrom}."
      },
      "setApprovalForAll(address,bool)": {
        "details": "See {IERC721-setApprovalForAll}."
      },
      "supportsInterface(bytes4)": {
        "details": "See {IERC165-supportsInterface}.     * Time complexity O(1), guaranteed to always use less than 30 000 gas."
      },
      "symbol()": {
        "details": "See {IERC721Metadata-symbol}."
      },
      "tokenByIndex(uint256)": {
        "details": "See {IERC721Enumerable-tokenByIndex}."
      },
      "tokenOfOwnerByIndex(address,uint256)": {
        "details": "See {IERC721Enumerable-tokenOfOwnerByIndex}."
      },
      "tokenURI(uint256)": {
        "details": "See {IERC721Metadata-tokenURI}."
      },
      "totalSupply()": {
        "details": "See {IERC721Enumerable-totalSupply}."
      },
      "transferFrom(address,address,uint256)": {
        "details": "See {IERC721-transferFrom}."
      },
      "transferOwnership(address)": {
        "details": "Transfers ownership of the contract to a new account (`newOwner`). Can only be called by the current owner."
      }
    }
  },
  "userdoc": {
    "methods": {}
  }
}