{
  "contractName": "cryptoHistory",
  "abi": [
    {
      "inputs": [],
      "stateMutability": "nonpayable",
      "type": "constructor"
    },
    {
      "anonymous": false,
      "inputs": [
        {
          "indexed": true,
          "internalType": "address",
          "name": "owner",
          "type": "address"
        },
        {
          "indexed": true,
          "internalType": "address",
          "name": "approved",
          "type": "address"
        },
        {
          "indexed": true,
          "internalType": "uint256",
          "name": "tokenId",
          "type": "uint256"
        }
      ],
      "name": "Approval",
      "type": "event"
    },
    {
      "anonymous": false,
      "inputs": [
        {
          "indexed": true,
          "internalType": "address",
          "name": "owner",
          "type": "address"
        },
        {
          "indexed": true,
          "internalType": "address",
          "name": "operator",
          "type": "address"
        },
        {
          "indexed": false,
          "internalType": "bool",
          "name": "approved",
          "type": "bool"
        }
      ],
      "name": "ApprovalForAll",
      "type": "event"
    },
    {
      "anonymous": false,
      "inputs": [
        {
          "indexed": true,
          "internalType": "address",
          "name": "previousOwner",
          "type": "address"
        },
        {
          "indexed": true,
          "internalType": "address",
          "name": "newOwner",
          "type": "address"
        }
      ],
      "name": "OwnershipTransferred",
      "type": "event"
    },
    {
      "anonymous": false,
      "inputs": [
        {
          "indexed": true,
          "internalType": "address",
          "name": "from",
          "type": "address"
        },
        {
          "indexed": true,
          "internalType": "address",
          "name": "to",
          "type": "address"
        },
        {
          "indexed": true,
          "internalType": "uint256",
          "name": "tokenId",
          "type": "uint256"
        }
      ],
      "name": "Transfer",
      "type": "event"
    },
    {
      "anonymous": false,
      "inputs": [
        {
          "indexed": false,
          "internalType": "uint256",
          "name": "_collection",
          "type": "uint256"
        },
        {
          "indexed": false,
          "internalType": "uint256",
          "name": "_cardType",
          "type": "uint256"
        },
        {
          "indexed": false,
          "internalType": "address",
          "name": "owner",
          "type": "address"
        }
      ],
      "name": "cardCreated",
      "type": "event"
    },
    {
      "inputs": [],
      "name": "_name",
      "outputs": [
        {
          "internalType": "string",
          "name": "",
          "type": "string"
        }
      ],
      "stateMutability": "view",
      "type": "function"
    },
    {
      "inputs": [],
      "name": "_symbol",
      "outputs": [
        {
          "internalType": "string",
          "name": "",
          "type": "string"
        }
      ],
      "stateMutability": "view",
      "type": "function"
    },
    {
      "inputs": [
        {
          "internalType": "uint256",
          "name": "",
          "type": "uint256"
        }
      ],
      "name": "alreadycreated",
      "outputs": [
        {
          "internalType": "bool",
          "name": "",
          "type": "bool"
        }
      ],
      "stateMutability": "view",
      "type": "function"
    },
    {
      "inputs": [
        {
          "internalType": "address",
          "name": "to",
          "type": "address"
        },
        {
          "internalType": "uint256",
          "name": "tokenId",
          "type": "uint256"
        }
      ],
      "name": "approve",
      "outputs": [],
      "stateMutability": "nonpayable",
      "type": "function"
    },
    {
      "inputs": [
        {
          "internalType": "address",
          "name": "owner",
          "type": "address"
        }
      ],
      "name": "balanceOf",
      "outputs": [
        {
          "internalType": "uint256",
          "name": "",
          "type": "uint256"
        }
      ],
      "stateMutability": "view",
      "type": "function"
    },
    {
      "inputs": [],
      "name": "baseURI",
      "outputs": [
        {
          "internalType": "string",
          "name": "",
          "type": "string"
        }
      ],
      "stateMutability": "view",
      "type": "function"
    },
    {
      "inputs": [
        {
          "internalType": "uint256",
          "name": "",
          "type": "uint256"
        }
      ],
      "name": "cards",
      "outputs": [
        {
          "internalType": "uint256",
          "name": "collection",
          "type": "uint256"
        },
        {
          "internalType": "uint256",
          "name": "cardType",
          "type": "uint256"
        },
        {
          "internalType": "uint8",
          "name": "capacity",
          "type": "uint8"
        }
      ],
      "stateMutability": "view",
      "type": "function"
    },
    {
      "inputs": [
        {
          "internalType": "uint256",
          "name": "",
          "type": "uint256"
        },
        {
          "internalType": "uint256",
          "name": "",
          "type": "uint256"
        }
      ],
      "name": "chargesForCards",
      "outputs": [
        {
          "internalType": "uint256",
          "name": "",
          "type": "uint256"
        }
      ],
      "stateMutability": "view",
      "type": "function"
    },
    {
      "inputs": [
        {
          "internalType": "uint256",
          "name": "tokenId",
          "type": "uint256"
        }
      ],
      "name": "getApproved",
      "outputs": [
        {
          "internalType": "address",
          "name": "",
          "type": "address"
        }
      ],
      "stateMutability": "view",
      "type": "function"
    },
    {
      "inputs": [
        {
          "internalType": "address",
          "name": "owner",
          "type": "address"
        },
        {
          "internalType": "address",
          "name": "operator",
          "type": "address"
        }
      ],
      "name": "isApprovedForAll",
      "outputs": [
        {
          "internalType": "bool",
          "name": "",
          "type": "bool"
        }
      ],
      "stateMutability": "view",
      "type": "function"
    },
    {
      "inputs": [],
      "name": "maxForEachCard",
      "outputs": [
        {
          "internalType": "uint256",
          "name": "",
          "type": "uint256"
        }
      ],
      "stateMutability": "view",
      "type": "function"
    },
    {
      "inputs": [],
      "name": "name",
      "outputs": [
        {
          "internalType": "string",
          "name": "",
          "type": "string"
        }
      ],
      "stateMutability": "view",
      "type": "function"
    },
    {
      "inputs": [],
      "name": "owner",
      "outputs": [
        {
          "internalType": "address",
          "name": "",
          "type": "address"
        }
      ],
      "stateMutability": "view",
      "type": "function"
    },
    {
      "inputs": [
        {
          "internalType": "uint256",
          "name": "tokenId",
          "type": "uint256"
        }
      ],
      "name": "ownerOf",
      "outputs": [
        {
          "internalType": "address",
          "name": "",
          "type": "address"
        }
      ],
      "stateMutability": "view",
      "type": "function"
    },
    {
      "inputs": [],
      "name": "renounceOwnership",
      "outputs": [],
      "stateMutability": "nonpayable",
      "type": "function"
    },
    {
      "inputs": [
        {
          "internalType": "address",
          "name": "from",
          "type": "address"
        },
        {
          "internalType": "address",
          "name": "to",
          "type": "address"
        },
        {
          "internalType": "uint256",
          "name": "tokenId",
          "type": "uint256"
        }
      ],
      "name": "safeTransferFrom",
      "outputs": [],
      "stateMutability": "nonpayable",
      "type": "function"
    },
    {
      "inputs": [
        {
          "internalType": "address",
          "name": "from",
          "type": "address"
        },
        {
          "internalType": "address",
          "name": "to",
          "type": "address"
        },
        {
          "internalType": "uint256",
          "name": "tokenId",
          "type": "uint256"
        },
        {
          "internalType": "bytes",
          "name": "_data",
          "type": "bytes"
        }
      ],
      "name": "safeTransferFrom",
      "outputs": [],
      "stateMutability": "nonpayable",
      "type": "function"
    },
    {
      "inputs": [
        {
          "internalType": "address",
          "name": "operator",
          "type": "address"
        },
        {
          "internalType": "bool",
          "name": "approved",
          "type": "bool"
        }
      ],
      "name": "setApprovalForAll",
      "outputs": [],
      "stateMutability": "nonpayable",
      "type": "function"
    },
    {
      "inputs": [
        {
          "internalType": "bytes4",
          "name": "interfaceId",
          "type": "bytes4"
        }
      ],
      "name": "supportsInterface",
      "outputs": [
        {
          "internalType": "bool",
          "name": "",
          "type": "bool"
        }
      ],
      "stateMutability": "view",
      "type": "function"
    },
    {
      "inputs": [],
      "name": "symbol",
      "outputs": [
        {
          "internalType": "string",
          "name": "",
          "type": "string"
        }
      ],
      "stateMutability": "view",
      "type": "function"
    },
    {
      "inputs": [
        {
          "internalType": "uint256",
          "name": "index",
          "type": "uint256"
        }
      ],
      "name": "tokenByIndex",
      "outputs": [
        {
          "internalType": "uint256",
          "name": "",
          "type": "uint256"
        }
      ],
      "stateMutability": "view",
      "type": "function"
    },
    {
      "inputs": [
        {
          "internalType": "address",
          "name": "owner",
          "type": "address"
        },
        {
          "internalType": "uint256",
          "name": "index",
          "type": "uint256"
        }
      ],
      "name": "tokenOfOwnerByIndex",
      "outputs": [
        {
          "internalType": "uint256",
          "name": "",
          "type": "uint256"
        }
      ],
      "stateMutability": "view",
      "type": "function"
    },
    {
      "inputs": [
        {
          "internalType": "uint256",
          "name": "tokenId",
          "type": "uint256"
        }
      ],
      "name": "tokenURI",
      "outputs": [
        {
          "internalType": "string",
          "name": "",
          "type": "string"
        }
      ],
      "stateMutability": "view",
      "type": "function"
    },
    {
      "inputs": [],
      "name": "totalSupply",
      "outputs": [
        {
          "internalType": "uint256",
          "name": "",
          "type": "uint256"
        }
      ],
      "stateMutability": "view",
      "type": "function"
    },
    {
      "inputs": [
        {
          "internalType": "address",
          "name": "from",
          "type": "address"
        },
        {
          "internalType": "address",
          "name": "to",
          "type": "address"
        },
        {
          "internalType": "uint256",
          "name": "tokenId",
          "type": "uint256"
        }
      ],
      "name": "transferFrom",
      "outputs": [],
      "stateMutability": "nonpayable",
      "type": "function"
    },
    {
      "inputs": [
        {
          "internalType": "address",
          "name": "newOwner",
          "type": "address"
        }
      ],
      "name": "transferOwnership",
      "outputs": [],
      "stateMutability": "nonpayable",
      "type": "function"
    },
    {
      "inputs": [
        {
          "internalType": "uint256",
          "name": "collection",
          "type": "uint256"
        },
        {
          "internalType": "uint256",
          "name": "cardType",
          "type": "uint256"
        }
      ],
      "name": "mintCard",
      "outputs": [],
      "stateMutability": "nonpayable",
      "type": "function"
    },
    {
      "inputs": [
        {
          "internalType": "uint256[]",
          "name": "collections",
          "type": "uint256[]"
        },
        {
          "internalType": "uint256[]",
          "name": "cardTypes",
          "type": "uint256[]"
        }
      ],
      "name": "mintAll",
      "outputs": [],
      "stateMutability": "nonpayable",
      "type": "function"
    },
    {
      "inputs": [
        {
          "internalType": "uint256",
          "name": "_Id",
          "type": "uint256"
        }
      ],
      "name": "getCard",
      "outputs": [
        {
          "internalType": "uint256",
          "name": "collection",
          "type": "uint256"
        },
        {
          "internalType": "uint256",
          "name": "cardType",
          "type": "uint256"
        },
        {
          "internalType": "uint16",
          "name": "capacity",
          "type": "uint16"
        }
      ],
      "stateMutability": "view",
      "type": "function"
    },
    {
      "inputs": [
        {
          "internalType": "uint256",
          "name": "cardType1",
          "type": "uint256"
        },
        {
          "internalType": "uint256",
          "name": "cardType2",
          "type": "uint256"
        },
        {
          "internalType": "uint256",
          "name": "cardType3",
          "type": "uint256"
        }
      ],
      "name": "chargeCards",
      "outputs": [],
      "stateMutability": "nonpayable",
      "type": "function"
    },
    {
      "inputs": [
        {
          "internalType": "uint256",
          "name": "destroyerId",
          "type": "uint256"
        },
        {
          "internalType": "uint256",
          "name": "consumedId",
          "type": "uint256"
        }
      ],
      "name": "destroyCard",
      "outputs": [
        {
          "internalType": "uint256",
          "name": "capacity",
          "type": "uint256"
        },
        {
          "internalType": "uint256",
          "name": "cardType",
          "type": "uint256"
        }
      ],
      "stateMutability": "nonpayable",
      "type": "function"
    },
    {
      "inputs": [
        {
          "internalType": "uint256",
          "name": "firstCardId",
          "type": "uint256"
        },
        {
          "internalType": "uint256",
          "name": "secondCardId",
          "type": "uint256"
        },
        {
          "internalType": "uint256",
          "name": "cardTypeToForge",
          "type": "uint256"
        }
      ],
      "name": "forgeCard",
      "outputs": [],
      "stateMutability": "nonpayable",
      "type": "function"
    }
  ],
  "bytecode": "0x60806040523480156200001157600080fd5b506040518060400160405280600d81526020017f63727970746f486973746f7279000000000000000000000000000000000000008152506040518060400160405280600281526020017f4348000000000000000000000000000000000000000000000000000000000000815250620000966301ffc9a760e01b620001c960201b60201c565b8160069080519060200190620000ae929190620002da565b508060079080519060200190620000c7929190620002da565b50620000e06380ac58cd60e01b620001c960201b60201c565b620000f8635b5e139f60e01b620001c960201b60201c565b6200011063780e9d6360e01b620001c960201b60201c565b5050600062000124620002d260201b60201c565b905080600a60006101000a81548173ffffffffffffffffffffffffffffffffffffffff021916908373ffffffffffffffffffffffffffffffffffffffff1602179055508073ffffffffffffffffffffffffffffffffffffffff16600073ffffffffffffffffffffffffffffffffffffffff167f8be0079c531659141344cd1fd0a4f28419497f9722a3daafe3b4186f6b6457e060405160405180910390a35062000389565b63ffffffff60e01b817bffffffffffffffffffffffffffffffffffffffffffffffffffffffff1916141562000266576040517f08c379a000000000000000000000000000000000000000000000000000000000815260040180806020018281038252601c8152602001807f4552433136353a20696e76616c696420696e746572666163652069640000000081525060200191505060405180910390fd5b6001600080837bffffffffffffffffffffffffffffffffffffffffffffffffffffffff19167bffffffffffffffffffffffffffffffffffffffffffffffffffffffff1916815260200190815260200160002060006101000a81548160ff02191690831515021790555050565b600033905090565b828054600181600116156101000203166002900490600052602060002090601f016020900481019282601f106200031d57805160ff19168380011785556200034e565b828001600101855582156200034e579182015b828111156200034d57825182559160200191906001019062000330565b5b5090506200035d919062000361565b5090565b6200038691905b808211156200038257600081600090555060010162000368565b5090565b90565b61428080620003996000396000f3fe608060405234801561001057600080fd5b50600436106101f05760003560e01c806370a082311161010f578063a80c1576116100a2578063c87b56dd11610071578063c87b56dd14610ce8578063d28d885214610d8f578063e985e9c514610e12578063f2fde38b14610e8e576101f0565b8063a80c157614610ad8578063b09f126614610b1a578063b664200b14610b9d578063b88d4fde14610be3576101f0565b80639188d312116100de5780639188d31214610961578063921af816146109b957806395d89b4114610a05578063a22cb46514610a88576101f0565b806370a082311461085f578063715018a6146108b75780638da5cb5b146108c15780638dc107681461090b576101f0565b806329ebdb5d116101875780634f6ccce7116101565780634f6ccce7146106ea5780636352211e1461072c578063643622441461079a5780636c0360eb146107dc576101f0565b806329ebdb5d146105a95780632f745c59146105c757806342842e0e14610629578063499d6d2b14610697576101f0565b806309ad6082116101c357806309ad6082146103995780630e427f17146104e557806318160ddd1461051d57806323b872dd1461053b576101f0565b806301ffc9a7146101f557806306fdde031461025a578063081812fc146102dd578063095ea7b31461034b575b600080fd5b6102406004803603602081101561020b57600080fd5b8101908080357bffffffffffffffffffffffffffffffffffffffffffffffffffffffff19169060200190929190505050610ed2565b604051808215151515815260200191505060405180910390f35b610262610f39565b6040518080602001828103825283818151815260200191508051906020019080838360005b838110156102a2578082015181840152602081019050610287565b50505050905090810190601f1680156102cf5780820380516001836020036101000a031916815260200191505b509250505060405180910390f35b610309600480360360208110156102f357600080fd5b8101908080359060200190929190505050610fdb565b604051808273ffffffffffffffffffffffffffffffffffffffff1673ffffffffffffffffffffffffffffffffffffffff16815260200191505060405180910390f35b6103976004803603604081101561036157600080fd5b81019080803573ffffffffffffffffffffffffffffffffffffffff16906020019092919080359060200190929190505050611076565b005b6104e3600480360360408110156103af57600080fd5b81019080803590602001906401000000008111156103cc57600080fd5b8201836020820111156103de57600080fd5b8035906020019184602083028401116401000000008311171561040057600080fd5b919080806020026020016040519081016040528093929190818152602001838360200280828437600081840152601f19601f8201169050808301925050505050505091929192908035906020019064010000000081111561046057600080fd5b82018360208201111561047257600080fd5b8035906020019184602083028401116401000000008311171561049457600080fd5b919080806020026020016040519081016040528093929190818152602001838360200280828437600081840152601f19601f8201169050808301925050505050505091929192905050506111ba565b005b61051b600480360360408110156104fb57600080fd5b8101908080359060200190929190803590602001909291905050506112e1565b005b610525611442565b6040518082815260200191505060405180910390f35b6105a76004803603606081101561055157600080fd5b81019080803573ffffffffffffffffffffffffffffffffffffffff169060200190929190803573ffffffffffffffffffffffffffffffffffffffff16906020019092919080359060200190929190505050611453565b005b6105b16114c9565b6040518082815260200191505060405180910390f35b610613600480360360408110156105dd57600080fd5b81019080803573ffffffffffffffffffffffffffffffffffffffff169060200190929190803590602001909291905050506114ce565b6040518082815260200191505060405180910390f35b6106956004803603606081101561063f57600080fd5b81019080803573ffffffffffffffffffffffffffffffffffffffff169060200190929190803573ffffffffffffffffffffffffffffffffffffffff16906020019092919080359060200190929190505050611529565b005b6106cd600480360360408110156106ad57600080fd5b810190808035906020019092919080359060200190929190505050611549565b604051808381526020018281526020019250505060405180910390f35b6107166004803603602081101561070057600080fd5b81019080803590602001909291905050506117e2565b6040518082815260200191505060405180910390f35b6107586004803603602081101561074257600080fd5b8101908080359060200190929190505050611805565b604051808273ffffffffffffffffffffffffffffffffffffffff1673ffffffffffffffffffffffffffffffffffffffff16815260200191505060405180910390f35b6107da600480360360608110156107b057600080fd5b8101908080359060200190929190803590602001909291908035906020019092919050505061183c565b005b6107e46119c6565b6040518080602001828103825283818151815260200191508051906020019080838360005b83811015610824578082015181840152602081019050610809565b50505050905090810190601f1680156108515780820380516001836020036101000a031916815260200191505b509250505060405180910390f35b6108a16004803603602081101561087557600080fd5b81019080803573ffffffffffffffffffffffffffffffffffffffff169060200190929190505050611a68565b6040518082815260200191505060405180910390f35b6108bf611b3d565b005b6108c9611cc8565b604051808273ffffffffffffffffffffffffffffffffffffffff1673ffffffffffffffffffffffffffffffffffffffff16815260200191505060405180910390f35b6109376004803603602081101561092157600080fd5b8101908080359060200190929190505050611cf2565b604051808481526020018381526020018260ff1660ff168152602001935050505060405180910390f35b61098d6004803603602081101561097757600080fd5b8101908080359060200190929190505050611d29565b604051808481526020018381526020018261ffff1661ffff168152602001935050505060405180910390f35b6109ef600480360360408110156109cf57600080fd5b810190808035906020019092919080359060200190929190505050611d71565b6040518082815260200191505060405180910390f35b610a0d611d96565b6040518080602001828103825283818151815260200191508051906020019080838360005b83811015610a4d578082015181840152602081019050610a32565b50505050905090810190601f168015610a7a5780820380516001836020036101000a031916815260200191505b509250505060405180910390f35b610ad660048036036040811015610a9e57600080fd5b81019080803573ffffffffffffffffffffffffffffffffffffffff169060200190929190803515159060200190929190505050611e38565b005b610b1860048036036060811015610aee57600080fd5b81019080803590602001909291908035906020019092919080359060200190929190505050611ff0565b005b610b226122ed565b6040518080602001828103825283818151815260200191508051906020019080838360005b83811015610b62578082015181840152602081019050610b47565b50505050905090810190601f168015610b8f5780820380516001836020036101000a031916815260200191505b509250505060405180910390f35b610bc960048036036020811015610bb357600080fd5b8101908080359060200190929190505050612326565b604051808215151515815260200191505060405180910390f35b610ce660048036036080811015610bf957600080fd5b81019080803573ffffffffffffffffffffffffffffffffffffffff169060200190929190803573ffffffffffffffffffffffffffffffffffffffff1690602001909291908035906020019092919080359060200190640100000000811115610c6057600080fd5b820183602082011115610c7257600080fd5b80359060200191846001830284011164010000000083111715610c9457600080fd5b91908080601f016020809104026020016040519081016040528093929190818152602001838380828437600081840152601f19601f820116905080830192505050505050509192919290505050612346565b005b610d1460048036036020811015610cfe57600080fd5b81019080803590602001909291905050506123be565b6040518080602001828103825283818151815260200191508051906020019080838360005b83811015610d54578082015181840152602081019050610d39565b50505050905090810190601f168015610d815780820380516001836020036101000a031916815260200191505b509250505060405180910390f35b610d976126a7565b6040518080602001828103825283818151815260200191508051906020019080838360005b83811015610dd7578082015181840152602081019050610dbc565b50505050905090810190601f168015610e045780820380516001836020036101000a031916815260200191505b509250505060405180910390f35b610e7460048036036040811015610e2857600080fd5b81019080803573ffffffffffffffffffffffffffffffffffffffff169060200190929190803573ffffffffffffffffffffffffffffffffffffffff1690602001909291905050506126e0565b604051808215151515815260200191505060405180910390f35b610ed060048036036020811015610ea457600080fd5b81019080803573ffffffffffffffffffffffffffffffffffffffff169060200190929190505050612774565b005b6000806000837bffffffffffffffffffffffffffffffffffffffffffffffffffffffff19167bffffffffffffffffffffffffffffffffffffffffffffffffffffffff1916815260200190815260200160002060009054906101000a900460ff169050919050565b606060068054600181600116156101000203166002900480601f016020809104026020016040519081016040528092919081815260200182805460018160011615610100020316600290048015610fd15780601f10610fa657610100808354040283529160200191610fd1565b820191906000526020600020905b815481529060010190602001808311610fb457829003601f168201915b5050505050905090565b6000610fe682612984565b61103b576040517f08c379a000000000000000000000000000000000000000000000000000000000815260040180806020018281038252602c815260200180614175602c913960400191505060405180910390fd5b6004600083815260200190815260200160002060009054906101000a900473ffffffffffffffffffffffffffffffffffffffff169050919050565b600061108182611805565b90508073ffffffffffffffffffffffffffffffffffffffff168373ffffffffffffffffffffffffffffffffffffffff161415611108576040517f08c379a00000000000000000000000000000000000000000000000000000000081526004018080602001828103825260218152602001806141f96021913960400191505060405180910390fd5b8073ffffffffffffffffffffffffffffffffffffffff166111276129a1565b73ffffffffffffffffffffffffffffffffffffffff1614806111565750611155816111506129a1565b6126e0565b5b6111ab576040517f08c379a00000000000000000000000000000000000000000000000000000000081526004018080602001828103825260388152602001806140c86038913960400191505060405180910390fd5b6111b583836129a9565b505050565b6111c26129a1565b73ffffffffffffffffffffffffffffffffffffffff16600a60009054906101000a900473ffffffffffffffffffffffffffffffffffffffff1673ffffffffffffffffffffffffffffffffffffffff1614611284576040517f08c379a00000000000000000000000000000000000000000000000000000000081526004018080602001828103825260208152602001807f4f776e61626c653a2063616c6c6572206973206e6f7420746865206f776e657281525060200191505060405180910390fd5b60008090505b81518110156112dc5760008382815181106112a157fe5b6020026020010151905060008383815181106112b957fe5b602002602001015190506112cd82826112e1565b5050808060010191505061128a565b505050565b6112e96129a1565b73ffffffffffffffffffffffffffffffffffffffff16600a60009054906101000a900473ffffffffffffffffffffffffffffffffffffffff1673ffffffffffffffffffffffffffffffffffffffff16146113ab576040517f08c379a00000000000000000000000000000000000000000000000000000000081526004018080602001828103825260208152602001807f4f776e61626c653a2063616c6c6572206973206e6f7420746865206f776e657281525060200191505060405180910390fd5b600015156011600083815260200190815260200160002060009054906101000a900460ff161515146113dc57600080fd5b60008090505b60038110156114115760006113f78484612a62565b90506114033382612ac8565b5080806001019150506113e2565b5060016011600083815260200190815260200160002060006101000a81548160ff0219169083151502179055505050565b600061144e6002612ae6565b905090565b61146461145e6129a1565b82612afb565b6114b9576040517f08c379a000000000000000000000000000000000000000000000000000000000815260040180806020018281038252603181526020018061421a6031913960400191505060405180910390fd5b6114c4838383612bef565b505050565b600381565b600061152182600160008673ffffffffffffffffffffffffffffffffffffffff1673ffffffffffffffffffffffffffffffffffffffff168152602001908152602001600020612e3290919063ffffffff16565b905092915050565b61154483838360405180602001604052806000815250612346565b505050565b600080600e600084815260200190815260200160002060010154600e6000868152602001908152602001600020600101541461158457600080fd5b3373ffffffffffffffffffffffffffffffffffffffff166115a485611805565b73ffffffffffffffffffffffffffffffffffffffff16146115c457600080fd5b3373ffffffffffffffffffffffffffffffffffffffff166115e484611805565b73ffffffffffffffffffffffffffffffffffffffff161461160457600080fd5b600e600084815260200190815260200160002060020160009054906101000a900460ff16600e600086815260200190815260200160002060020160009054906101000a900460ff1601600e600086815260200190815260200160002060020160006101000a81548160ff021916908360ff16021790555061168483612e4c565b60008090505b600e600085815260200190815260200160002060030180549050811015611795576000600e600086815260200190815260200160002060030182815481106116ce57fe5b906000526020600020015490506000600e60008781526020019081526020016000206004016000838152602001908152602001600020541461178757600e6000868152602001908152602001600020600401600082815260200190815260200160002054600e600088815260200190815260200160002060040160008381526020019081526020016000205401600e60008881526020019081526020016000206004016000838152602001908152602001600020819055505b50808060010191505061168a565b50600e600085815260200190815260200160002060010154600e600086815260200190815260200160002060020160009054906101000a900460ff168060ff169050915091509250929050565b6000806117f9836002612f8690919063ffffffff16565b50905080915050919050565b60006118358260405180606001604052806029815260200161412a602991396002612fb59092919063ffffffff16565b9050919050565b6000600e60008581526020019081526020016000206004016000838152602001908152602001600020541161187057600080fd5b6000600e6000848152602001908152602001600020600401600083815260200190815260200160002054116118a457600080fd5b3373ffffffffffffffffffffffffffffffffffffffff166118c484611805565b73ffffffffffffffffffffffffffffffffffffffff16146118e457600080fd5b3373ffffffffffffffffffffffffffffffffffffffff1661190483611805565b73ffffffffffffffffffffffffffffffffffffffff161461192457600080fd5b61192c611cc8565b73ffffffffffffffffffffffffffffffffffffffff1661194b82611805565b73ffffffffffffffffffffffffffffffffffffffff161461196b57600080fd5b6001600e6000858152602001908152602001600020600401600083815260200190815260200160002050506001600e600084815260200190815260200160002060040160008381526020019081526020016000205050505050565b606060098054600181600116156101000203166002900480601f016020809104026020016040519081016040528092919081815260200182805460018160011615610100020316600290048015611a5e5780601f10611a3357610100808354040283529160200191611a5e565b820191906000526020600020905b815481529060010190602001808311611a4157829003601f168201915b5050505050905090565b60008073ffffffffffffffffffffffffffffffffffffffff168273ffffffffffffffffffffffffffffffffffffffff161415611aef576040517f08c379a000000000000000000000000000000000000000000000000000000000815260040180806020018281038252602a815260200180614100602a913960400191505060405180910390fd5b611b36600160008473ffffffffffffffffffffffffffffffffffffffff1673ffffffffffffffffffffffffffffffffffffffff168152602001908152602001600020612fd4565b9050919050565b611b456129a1565b73ffffffffffffffffffffffffffffffffffffffff16600a60009054906101000a900473ffffffffffffffffffffffffffffffffffffffff1673ffffffffffffffffffffffffffffffffffffffff1614611c07576040517f08c379a00000000000000000000000000000000000000000000000000000000081526004018080602001828103825260208152602001807f4f776e61626c653a2063616c6c6572206973206e6f7420746865206f776e657281525060200191505060405180910390fd5b600073ffffffffffffffffffffffffffffffffffffffff16600a60009054906101000a900473ffffffffffffffffffffffffffffffffffffffff1673ffffffffffffffffffffffffffffffffffffffff167f8be0079c531659141344cd1fd0a4f28419497f9722a3daafe3b4186f6b6457e060405160405180910390a36000600a60006101000a81548173ffffffffffffffffffffffffffffffffffffffff021916908373ffffffffffffffffffffffffffffffffffffffff160217905550565b6000600a60009054906101000a900473ffffffffffffffffffffffffffffffffffffffff16905090565b600e6020528060005260406000206000915090508060000154908060010154908060020160009054906101000a900460ff16905083565b600080600080600e6000868152602001908152602001600020905080600001549350806001015492508060020160009054906101000a900460ff1660ff169150509193909250565b600f602052816000526040600020602052806000526040600020600091509150505481565b606060078054600181600116156101000203166002900480601f016020809104026020016040519081016040528092919081815260200182805460018160011615610100020316600290048015611e2e5780601f10611e0357610100808354040283529160200191611e2e565b820191906000526020600020905b815481529060010190602001808311611e1157829003601f168201915b5050505050905090565b611e406129a1565b73ffffffffffffffffffffffffffffffffffffffff168273ffffffffffffffffffffffffffffffffffffffff161415611ee1576040517f08c379a00000000000000000000000000000000000000000000000000000000081526004018080602001828103825260198152602001807f4552433732313a20617070726f766520746f2063616c6c65720000000000000081525060200191505060405180910390fd5b8060056000611eee6129a1565b73ffffffffffffffffffffffffffffffffffffffff1673ffffffffffffffffffffffffffffffffffffffff16815260200190815260200160002060008473ffffffffffffffffffffffffffffffffffffffff1673ffffffffffffffffffffffffffffffffffffffff16815260200190815260200160002060006101000a81548160ff0219169083151502179055508173ffffffffffffffffffffffffffffffffffffffff16611f9b6129a1565b73ffffffffffffffffffffffffffffffffffffffff167f17307eab39ab6107e8899845ad3d59bd9653f200f220920489ca2b5937696c3183604051808215151515815260200191505060405180910390a35050565b611ff86129a1565b73ffffffffffffffffffffffffffffffffffffffff16600a60009054906101000a900473ffffffffffffffffffffffffffffffffffffffff1673ffffffffffffffffffffffffffffffffffffffff16146120ba576040517f08c379a00000000000000000000000000000000000000000000000000000000081526004018080602001828103825260208152602001807f4f776e61626c653a2063616c6c6572206973206e6f7420746865206f776e657281525060200191505060405180910390fd5b8183141580156120ca5750808214155b80156120d65750808314155b61212b576040517f08c379a000000000000000000000000000000000000000000000000000000000815260040180806020018281038252602c815260200180613fce602c913960400191505060405180910390fd5b60008090505b600d5481116122e75782600e60008381526020019081526020016000206001015414156121e657600e600082815260200190815260200160002060020160009054906101000a900460ff1660ff16600e600083815260200190815260200160002060040160008681526020019081526020016000205050600e60008281526020019081526020016000206003018490806001815401808255809150506001900390600052602060002001600090919091909150555b81600e600083815260200190815260200160002060010154141561229257600e600082815260200190815260200160002060020160009054906101000a900460ff1660ff16600e600083815260200190815260200160002060040160008681526020019081526020016000205050600e60008281526020019081526020016000206003018490806001815401808255809150506001900390600052602060002001600090919091909150555b83600e60008381526020019081526020016000206001015414156122da5760108190806001815401808255809150506001900390600052602060002001600090919091909150555b8080600101915050612131565b50505050565b6040518060400160405280600281526020017f434800000000000000000000000000000000000000000000000000000000000081525081565b60116020528060005260406000206000915054906101000a900460ff1681565b6123576123516129a1565b83612afb565b6123ac576040517f08c379a000000000000000000000000000000000000000000000000000000000815260040180806020018281038252603181526020018061421a6031913960400191505060405180910390fd5b6123b884848484612fe9565b50505050565b60606123c982612984565b61241e576040517f08c379a000000000000000000000000000000000000000000000000000000000815260040180806020018281038252602f8152602001806141ca602f913960400191505060405180910390fd5b6060600860008481526020019081526020016000208054600181600116156101000203166002900480601f0160208091040260200160405190810160405280929190818152602001828054600181600116156101000203166002900480156124c75780601f1061249c576101008083540402835291602001916124c7565b820191906000526020600020905b8154815290600101906020018083116124aa57829003601f168201915b505050505090506000600980546001816001161561010002031660029004905014156124f657809150506126a2565b6000815111156125cf5760098160405160200180838054600181600116156101000203166002900480156125615780601f1061253f576101008083540402835291820191612561565b820191906000526020600020905b81548152906001019060200180831161254d575b505082805190602001908083835b60208310612592578051825260208201915060208101905060208303925061256f565b6001836020036101000a038019825116818451168082178552505050505050905001925050506040516020818303038152906040529150506126a2565b60096125da8461305b565b60405160200180838054600181600116156101000203166002900480156126385780601f10612616576101008083540402835291820191612638565b820191906000526020600020905b815481529060010190602001808311612624575b505082805190602001908083835b602083106126695780518252602082019150602081019050602083039250612646565b6001836020036101000a038019825116818451168082178552505050505050905001925050506040516020818303038152906040529150505b919050565b6040518060400160405280600d81526020017f63727970746f486973746f72790000000000000000000000000000000000000081525081565b6000600560008473ffffffffffffffffffffffffffffffffffffffff1673ffffffffffffffffffffffffffffffffffffffff16815260200190815260200160002060008373ffffffffffffffffffffffffffffffffffffffff1673ffffffffffffffffffffffffffffffffffffffff16815260200190815260200160002060009054906101000a900460ff16905092915050565b61277c6129a1565b73ffffffffffffffffffffffffffffffffffffffff16600a60009054906101000a900473ffffffffffffffffffffffffffffffffffffffff1673ffffffffffffffffffffffffffffffffffffffff161461283e576040517f08c379a00000000000000000000000000000000000000000000000000000000081526004018080602001828103825260208152602001807f4f776e61626c653a2063616c6c6572206973206e6f7420746865206f776e657281525060200191505060405180910390fd5b600073ffffffffffffffffffffffffffffffffffffffff168173ffffffffffffffffffffffffffffffffffffffff1614156128c4576040517f08c379a000000000000000000000000000000000000000000000000000000000815260040180806020018281038252602681526020018061402c6026913960400191505060405180910390fd5b8073ffffffffffffffffffffffffffffffffffffffff16600a60009054906101000a900473ffffffffffffffffffffffffffffffffffffffff1673ffffffffffffffffffffffffffffffffffffffff167f8be0079c531659141344cd1fd0a4f28419497f9722a3daafe3b4186f6b6457e060405160405180910390a380600a60006101000a81548173ffffffffffffffffffffffffffffffffffffffff021916908373ffffffffffffffffffffffffffffffffffffffff16021790555050565b600061299a82600261318b90919063ffffffff16565b9050919050565b600033905090565b816004600083815260200190815260200160002060006101000a81548173ffffffffffffffffffffffffffffffffffffffff021916908373ffffffffffffffffffffffffffffffffffffffff160217905550808273ffffffffffffffffffffffffffffffffffffffff16612a1c83611805565b73ffffffffffffffffffffffffffffffffffffffff167f8c5be1e5ebec7d5bd14f71427d1e84f3dd0314c0f7b2291e5b200ac8c7c3b92560405160405180910390a45050565b6000600d60008154809291906001019190505590506000600e6000838152602001908152602001600020905083816000018190555082816001018190555060018160020160006101000a81548160ff021916908360ff1602179055508191505092915050565b612ae28282604051806020016040528060008152506131a5565b5050565b6000612af482600001613216565b9050919050565b6000612b0682612984565b612b5b576040517f08c379a000000000000000000000000000000000000000000000000000000000815260040180806020018281038252602c81526020018061409c602c913960400191505060405180910390fd5b6000612b6683611805565b90508073ffffffffffffffffffffffffffffffffffffffff168473ffffffffffffffffffffffffffffffffffffffff161480612bd557508373ffffffffffffffffffffffffffffffffffffffff16612bbd84610fdb565b73ffffffffffffffffffffffffffffffffffffffff16145b80612be65750612be581856126e0565b5b91505092915050565b8273ffffffffffffffffffffffffffffffffffffffff16612c0f82611805565b73ffffffffffffffffffffffffffffffffffffffff1614612c7b576040517f08c379a00000000000000000000000000000000000000000000000000000000081526004018080602001828103825260298152602001806141a16029913960400191505060405180910390fd5b600073ffffffffffffffffffffffffffffffffffffffff168273ffffffffffffffffffffffffffffffffffffffff161415612d01576040517f08c379a00000000000000000000000000000000000000000000000000000000081526004018080602001828103825260248152602001806140526024913960400191505060405180910390fd5b612d0c838383613227565b612d176000826129a9565b612d6881600160008673ffffffffffffffffffffffffffffffffffffffff1673ffffffffffffffffffffffffffffffffffffffff16815260200190815260200160002061322c90919063ffffffff16565b50612dba81600160008573ffffffffffffffffffffffffffffffffffffffff1673ffffffffffffffffffffffffffffffffffffffff16815260200190815260200160002061324690919063ffffffff16565b50612dd1818360026132609092919063ffffffff16565b50808273ffffffffffffffffffffffffffffffffffffffff168473ffffffffffffffffffffffffffffffffffffffff167fddf252ad1be2c89b69c2b068fc378daa952ba7f163c4a11628f55a4df523b3ef60405160405180910390a4505050565b6000612e418360000183613295565b60001c905092915050565b6000612e5782611805565b9050612e6581600084613227565b612e706000836129a9565b60006008600084815260200190815260200160002080546001816001161561010002031660029004905014612ebf57600860008381526020019081526020016000206000612ebe9190613f3e565b5b612f1082600160008473ffffffffffffffffffffffffffffffffffffffff1673ffffffffffffffffffffffffffffffffffffffff16815260200190815260200160002061322c90919063ffffffff16565b50612f2582600261331890919063ffffffff16565b5081600073ffffffffffffffffffffffffffffffffffffffff168273ffffffffffffffffffffffffffffffffffffffff167fddf252ad1be2c89b69c2b068fc378daa952ba7f163c4a11628f55a4df523b3ef60405160405180910390a45050565b600080600080612f998660000186613332565b915091508160001c8160001c8090509350935050509250929050565b6000612fc8846000018460001b846133cb565b60001c90509392505050565b6000612fe2826000016134c1565b9050919050565b612ff4848484612bef565b613000848484846134d2565b613055576040517f08c379a0000000000000000000000000000000000000000000000000000000008152600401808060200182810382526032815260200180613ffa6032913960400191505060405180910390fd5b50505050565b606060008214156130a3576040518060400160405280600181526020017f30000000000000000000000000000000000000000000000000000000000000008152509050613186565b600082905060005b600082146130cd578080600101915050600a82816130c557fe5b0491506130ab565b6060816040519080825280601f01601f1916602001820160405280156131025781602001600182028038833980820191505090505b50905060006001830390508593505b6000841461317e57600a848161312357fe5b0660300160f81b8282806001900393508151811061313d57fe5b60200101907effffffffffffffffffffffffffffffffffffffffffffffffffffffffffffff1916908160001a905350600a848161317657fe5b049350613111565b819450505050505b919050565b600061319d836000018360001b613717565b905092915050565b6131af838361373a565b6131bc60008484846134d2565b613211576040517f08c379a0000000000000000000000000000000000000000000000000000000008152600401808060200182810382526032815260200180613ffa6032913960400191505060405180910390fd5b505050565b600081600001805490509050919050565b505050565b600061323e836000018360001b61392e565b905092915050565b6000613258836000018360001b613a16565b905092915050565b600061328c846000018460001b8473ffffffffffffffffffffffffffffffffffffffff1660001b613a86565b90509392505050565b6000818360000180549050116132f6576040517f08c379a0000000000000000000000000000000000000000000000000000000008152600401808060200182810382526022815260200180613fac6022913960400191505060405180910390fd5b82600001828154811061330557fe5b9060005260206000200154905092915050565b600061332a836000018360001b613b62565b905092915050565b60008082846000018054905011613394576040517f08c379a00000000000000000000000000000000000000000000000000000000081526004018080602001828103825260228152602001806141536022913960400191505060405180910390fd5b60008460000184815481106133a557fe5b906000526020600020906002020190508060000154816001015492509250509250929050565b60008084600101600085815260200190815260200160002054905060008114158390613492576040517f08c379a00000000000000000000000000000000000000000000000000000000081526004018080602001828103825283818151815260200191508051906020019080838360005b8381101561345757808201518184015260208101905061343c565b50505050905090810190601f1680156134845780820380516001836020036101000a031916815260200191505b509250505060405180910390fd5b508460000160018203815481106134a557fe5b9060005260206000209060020201600101549150509392505050565b600081600001805490509050919050565b60006134f38473ffffffffffffffffffffffffffffffffffffffff16613c7b565b613500576001905061370f565b606061369663150b7a0260e01b6135156129a1565b888787604051602401808573ffffffffffffffffffffffffffffffffffffffff1673ffffffffffffffffffffffffffffffffffffffff1681526020018473ffffffffffffffffffffffffffffffffffffffff1673ffffffffffffffffffffffffffffffffffffffff16815260200183815260200180602001828103825283818151815260200191508051906020019080838360005b838110156135c55780820151818401526020810190506135aa565b50505050905090810190601f1680156135f25780820380516001836020036101000a031916815260200191505b5095505050505050604051602081830303815290604052907bffffffffffffffffffffffffffffffffffffffffffffffffffffffff19166020820180517bffffffffffffffffffffffffffffffffffffffffffffffffffffffff8381831617835250505050604051806060016040528060328152602001613ffa603291398773ffffffffffffffffffffffffffffffffffffffff16613c8e9092919063ffffffff16565b905060008180602001905160208110156136af57600080fd5b8101908080519060200190929190505050905063150b7a0260e01b7bffffffffffffffffffffffffffffffffffffffffffffffffffffffff1916817bffffffffffffffffffffffffffffffffffffffffffffffffffffffff191614925050505b949350505050565b600080836001016000848152602001908152602001600020541415905092915050565b600073ffffffffffffffffffffffffffffffffffffffff168273ffffffffffffffffffffffffffffffffffffffff1614156137dd576040517f08c379a00000000000000000000000000000000000000000000000000000000081526004018080602001828103825260208152602001807f4552433732313a206d696e7420746f20746865207a65726f206164647265737381525060200191505060405180910390fd5b6137e681612984565b15613859576040517f08c379a000000000000000000000000000000000000000000000000000000000815260040180806020018281038252601c8152602001807f4552433732313a20746f6b656e20616c7265616479206d696e7465640000000081525060200191505060405180910390fd5b61386560008383613227565b6138b681600160008573ffffffffffffffffffffffffffffffffffffffff1673ffffffffffffffffffffffffffffffffffffffff16815260200190815260200160002061324690919063ffffffff16565b506138cd818360026132609092919063ffffffff16565b50808273ffffffffffffffffffffffffffffffffffffffff16600073ffffffffffffffffffffffffffffffffffffffff167fddf252ad1be2c89b69c2b068fc378daa952ba7f163c4a11628f55a4df523b3ef60405160405180910390a45050565b60008083600101600084815260200190815260200160002054905060008114613a0a576000600182039050600060018660000180549050039050600086600001828154811061397957fe5b906000526020600020015490508087600001848154811061399657fe5b90600052602060002001819055506001830187600101600083815260200190815260200160002081905550866000018054806139ce57fe5b60019003818190600052602060002001600090559055866001016000878152602001908152602001600020600090556001945050505050613a10565b60009150505b92915050565b6000613a228383613ca6565b613a7b578260000182908060018154018082558091505060019003906000526020600020016000909190919091505582600001805490508360010160008481526020019081526020016000208190555060019050613a80565b600090505b92915050565b6000808460010160008581526020019081526020016000205490506000811415613b2d57846000016040518060400160405280868152602001858152509080600181540180825580915050600190039060005260206000209060020201600090919091909150600082015181600001556020820151816001015550508460000180549050856001016000868152602001908152602001600020819055506001915050613b5b565b82856000016001830381548110613b4057fe5b90600052602060002090600202016001018190555060009150505b9392505050565b60008083600101600084815260200190815260200160002054905060008114613c6f5760006001820390506000600186600001805490500390506000866000018281548110613bad57fe5b9060005260206000209060020201905080876000018481548110613bcd57fe5b9060005260206000209060020201600082015481600001556001820154816001015590505060018301876001016000836000015481526020019081526020016000208190555086600001805480613c2057fe5b6001900381819060005260206000209060020201600080820160009055600182016000905550509055866001016000878152602001908152602001600020600090556001945050505050613c75565b60009150505b92915050565b600080823b905060008111915050919050565b6060613c9d8484600085613cc9565b90509392505050565b600080836001016000848152602001908152602001600020541415905092915050565b606082471015613d24576040517f08c379a00000000000000000000000000000000000000000000000000000000081526004018080602001828103825260268152602001806140766026913960400191505060405180910390fd5b613d2d85613c7b565b613d9f576040517f08c379a000000000000000000000000000000000000000000000000000000000815260040180806020018281038252601d8152602001807f416464726573733a2063616c6c20746f206e6f6e2d636f6e747261637400000081525060200191505060405180910390fd5b600060608673ffffffffffffffffffffffffffffffffffffffff1685876040518082805190602001908083835b60208310613def5780518252602082019150602081019050602083039250613dcc565b6001836020036101000a03801982511681845116808217855250505050505090500191505060006040518083038185875af1925050503d8060008114613e51576040519150601f19603f3d011682016040523d82523d6000602084013e613e56565b606091505b5091509150613e66828286613e72565b92505050949350505050565b60608315613e8257829050613f37565b600083511115613e955782518084602001fd5b816040517f08c379a00000000000000000000000000000000000000000000000000000000081526004018080602001828103825283818151815260200191508051906020019080838360005b83811015613efc578082015181840152602081019050613ee1565b50505050905090810190601f168015613f295780820380516001836020036101000a031916815260200191505b509250505060405180910390fd5b9392505050565b50805460018160011615610100020316600290046000825580601f10613f645750613f83565b601f016020900490600052602060002090810190613f829190613f86565b5b50565b613fa891905b80821115613fa4576000816000905550600101613f8c565b5090565b9056fe456e756d657261626c655365743a20696e646578206f7574206f6620626f756e6473596f752063616e6e6f74207573652063617264732077697468207468652073616d65206361726454797065214552433732313a207472616e7366657220746f206e6f6e20455243373231526563656976657220696d706c656d656e7465724f776e61626c653a206e6577206f776e657220697320746865207a65726f20616464726573734552433732313a207472616e7366657220746f20746865207a65726f2061646472657373416464726573733a20696e73756666696369656e742062616c616e636520666f722063616c6c4552433732313a206f70657261746f7220717565727920666f72206e6f6e6578697374656e7420746f6b656e4552433732313a20617070726f76652063616c6c6572206973206e6f74206f776e6572206e6f7220617070726f76656420666f7220616c6c4552433732313a2062616c616e636520717565727920666f7220746865207a65726f20616464726573734552433732313a206f776e657220717565727920666f72206e6f6e6578697374656e7420746f6b656e456e756d657261626c654d61703a20696e646578206f7574206f6620626f756e64734552433732313a20617070726f76656420717565727920666f72206e6f6e6578697374656e7420746f6b656e4552433732313a207472616e73666572206f6620746f6b656e2074686174206973206e6f74206f776e4552433732314d657461646174613a2055524920717565727920666f72206e6f6e6578697374656e7420746f6b656e4552433732313a20617070726f76616c20746f2063757272656e74206f776e65724552433732313a207472616e736665722063616c6c6572206973206e6f74206f776e6572206e6f7220617070726f766564a264697066735822122080d460b25609f54a89d979be3332cd65ed4d1f871d6a4e6ddef339419602e51a64736f6c63430006020033",
  "source": "pragma solidity >=0.6.0;\n\nimport \"@openzeppelin/contracts/token/ERC721/ERC721.sol\";\nimport \"@openzeppelin/contracts/access/Ownable.sol\";\n\ncontract cryptoHistory is ERC721, Ownable {\n    constructor() public ERC721(\"cryptoHistory\", \"CH\") {}\n\n    string public constant _name = \"cryptoHistory\";\n    string public constant _symbol = \"CH\";\n    //maximum of cards with the same name\n    uint256 public constant maxForEachCard = 3;\n\n    struct Card {\n        uint256 collection;\n        uint256 cardType;\n        uint8 capacity;\n        uint256[] historyOfCards;\n        mapping(uint256 => uint256) charges;\n    }\n\n    struct cardAttribute {\n        uint256 collection;\n        uint256 cardType;\n    }\n    //this array of cards that will be minted\n    cardAttribute[] cardAttributes;\n    //this is an array of cards that can be crafted\n    cardAttribute[] attributesToForge;\n\n    // this is used to give a number to every that is either created or minted\n    uint256 totalCards;\n\n    // this assigns a number to a card\n    mapping(uint256 => Card) public cards;\n\n    mapping(uint256 => mapping(uint256 => uint256)) public chargesForCards;\n\n    // array of cards that you will get if you forge a card\n    uint256[] cardsToForge;\n\n    // this prevents a functon from minting the same cards few times.\n    mapping(uint256 => bool) public alreadycreated;\n\n    event cardCreated(uint256 _collection, uint256 _cardType, address owner);\n\n    //this creates a card\n    function _createCard(uint256 _collection, uint256 _cardType)\n        private\n        returns (uint256 x)\n    {\n        x = totalCards++;\n\n        Card storage _card = cards[x];\n\n        _card.collection = _collection;\n        _card.cardType = _cardType;\n        _card.capacity = 1;\n\n        return x;\n    }\n\n    // this creates all the cards with the same cardType\n    function mintCard(uint256 collection, uint256 cardType) public onlyOwner {\n        require(alreadycreated[cardType] == false);\n\n        for (uint256 i = 0; i < maxForEachCard; i++) {\n            uint256 x = _createCard(collection, cardType);\n            _safeMint(msg.sender, x);\n        }\n        alreadycreated[cardType] = true;\n    }\n\n    // this creates all the cards and collections of the current season\n    function mintAll(uint256[] memory collections, uint256[] memory cardTypes)\n        public\n        onlyOwner\n    {\n        for (uint256 i = 0; i < cardTypes.length; i++) {\n            uint256 collection = collections[i];\n            uint256 cardType = cardTypes[i];\n            mintCard(collection, cardType);\n        }\n    }\n\n    function getCard(uint256 _Id)\n        external\n        view\n        returns (\n            uint256 collection,\n            uint256 cardType,\n            uint16 capacity\n        )\n    {\n        Card storage card = cards[_Id];\n        collection = card.collection;\n        cardType = card.cardType;\n        capacity = card.capacity;\n    }\n\n    function chargeCards(\n        uint256 cardType1,\n        uint256 cardType2,\n        uint256 cardType3\n    ) public onlyOwner {\n        // Mojno li tak ne ravno pisat?\n        require(\n            cardType1 != cardType2 &&\n                cardType2 != cardType3 &&\n                cardType1 != cardType3,\n            \"You cannot use cards with the same cardType!\"\n        );\n        // KAK prospisat collection esli ego net v parametrah\n        //require(condition, \"You cannot use cards with the same collection!\");\n        // TOTALCARDS < ILI =< ????????????????\n        //  //////////////////////////////////////////////////////////////\n        for (uint256 i = 0; i <= totalCards; i++) {\n            if (cards[i].cardType == cardType2) {\n                cards[i].charges[cardType1] == cards[i].capacity;\n                cards[i].historyOfCards.push(cardType1);\n            }\n            if (cards[i].cardType == cardType3) {\n                cards[i].charges[cardType1] == cards[i].capacity;\n                cards[i].historyOfCards.push(cardType1);\n            }\n            if (cards[i].cardType == cardType1) {\n                cardsToForge.push(i);\n            }\n        }\n    }\n\n    //this destryoes a card and gives\n    function destroyCard(uint256 destroyerId, uint256 consumedId)\n        public\n        returns (uint256 capacity, uint256 cardType)\n    {\n        require(cards[destroyerId].cardType == cards[consumedId].cardType);\n        require(ownerOf(destroyerId) == msg.sender);\n        require(ownerOf(consumedId) == msg.sender);\n\n        cards[destroyerId].capacity =\n            cards[destroyerId].capacity +\n            cards[consumedId].capacity;\n\n        _burn(consumedId);\n        for (uint256 i = 0; i < cards[consumedId].historyOfCards.length; i++) {\n            uint256 x = cards[consumedId].historyOfCards[i];\n\n            if (cards[consumedId].charges[x] != 0) {\n                cards[destroyerId].charges[x] =\n                    cards[destroyerId].charges[x] +\n                    cards[consumedId].charges[x];\n            }\n        }\n\n        return (cards[destroyerId].cardType, cards[destroyerId].capacity);\n    }\n\n    //this forges a card  and consumes charges of other cards\n    function forgeCard(\n        uint256 firstCardId,\n        uint256 secondCardId,\n        uint256 cardTypeToForge\n    ) public {\n        //The owner of the opened card must be the owener of the contract!!!!!\n        require(cards[firstCardId].charges[cardTypeToForge] > 0);\n        require(cards[secondCardId].charges[cardTypeToForge] > 0);\n        require(ownerOf(firstCardId) == msg.sender);\n        require(ownerOf(secondCardId) == msg.sender);\n        require(ownerOf(cardTypeToForge) == owner());\n\n        cards[firstCardId].charges[cardTypeToForge] - 1;\n        cards[secondCardId].charges[cardTypeToForge] - 1;\n    }\n\n    // function getCardByOwner(address _owner)\n    //     external\n    //     view\n    //     returns (uint256[] memory)\n    // {\n    //     x = balanceOf(_owner);\n    //     uint256[] memory result = new uint256[](x);\n    //     uint256 counter = 0;\n    //     for (uint256 i = 0; i < x; i++) {\n    //         y = tokenByIndex(i);\n    //         result.push(y);\n    //     }\n    //     return result;\n    // }\n}\n",
  "sourcePath": "C:\\Users\\Owner\\Desktop\\cryptycats\\cryptoHistory\\contracts\\cryptoHistory.sol",
  "compiler": {
    "name": "solc",
    "version": "0.6.2+commit.bacdbe57.Emscripten.clang"
  },
  "schemaVersion": "3.2.0",
  "updatedAt": "2021-03-01T21:23:14.097Z",
  "devdoc": {
    "methods": {
      "approve(address,uint256)": {
        "details": "See {IERC721-approve}."
      },
      "balanceOf(address)": {
        "details": "See {IERC721-balanceOf}."
      },
      "baseURI()": {
        "details": "Returns the base URI set via {_setBaseURI}. This will be automatically added as a prefix in {tokenURI} to each token's URI, or to the token ID if no specific URI is set for that token ID."
      },
      "getApproved(uint256)": {
        "details": "See {IERC721-getApproved}."
      },
      "isApprovedForAll(address,address)": {
        "details": "See {IERC721-isApprovedForAll}."
      },
      "name()": {
        "details": "See {IERC721Metadata-name}."
      },
      "owner()": {
        "details": "Returns the address of the current owner."
      },
      "ownerOf(uint256)": {
        "details": "See {IERC721-ownerOf}."
      },
      "renounceOwnership()": {
        "details": "Leaves the contract without owner. It will not be possible to call `onlyOwner` functions anymore. Can only be called by the current owner.     * NOTE: Renouncing ownership will leave the contract without an owner, thereby removing any functionality that is only available to the owner."
      },
      "safeTransferFrom(address,address,uint256)": {
        "details": "See {IERC721-safeTransferFrom}."
      },
      "safeTransferFrom(address,address,uint256,bytes)": {
        "details": "See {IERC721-safeTransferFrom}."
      },
      "setApprovalForAll(address,bool)": {
        "details": "See {IERC721-setApprovalForAll}."
      },
      "supportsInterface(bytes4)": {
        "details": "See {IERC165-supportsInterface}.     * Time complexity O(1), guaranteed to always use less than 30 000 gas."
      },
      "symbol()": {
        "details": "See {IERC721Metadata-symbol}."
      },
      "tokenByIndex(uint256)": {
        "details": "See {IERC721Enumerable-tokenByIndex}."
      },
      "tokenOfOwnerByIndex(address,uint256)": {
        "details": "See {IERC721Enumerable-tokenOfOwnerByIndex}."
      },
      "tokenURI(uint256)": {
        "details": "See {IERC721Metadata-tokenURI}."
      },
      "totalSupply()": {
        "details": "See {IERC721Enumerable-totalSupply}."
      },
      "transferFrom(address,address,uint256)": {
        "details": "See {IERC721-transferFrom}."
      },
      "transferOwnership(address)": {
        "details": "Transfers ownership of the contract to a new account (`newOwner`). Can only be called by the current owner."
      }
    }
  },
  "userdoc": {
    "methods": {}
  }
}